:020000040800F2
:1000000000000220011400088D120008911200085F
:1000100095120008991200089D12000800000000C7
:10002000000000000000000000000000711B01083B
:10003000A112000800000000011C010861F1000885
:10004000711400087114000871140008711400087C
:10005000711400087114000871140008711400086C
:1000600071140008A5120008AD12000871140008F0
:10007000711400087114000871140008711400084C
:10008000B5120008C11200087114000871140008AC
:10009000711400087114000871140008711400082C
:1000A000711400087114000871140008711400081C
:1000B000711400087114000871140008711400080C
:1000C00071140008711400087114000871140008FC
:1000D00071140008CD120008D9120008711400082C
:1000E00071140008711400087114000871140008DC
:1000F00071140008711400087114000871140008CC
:1001000071140008E5120008711400087114000849
:100110007114000871140008F1120008711400082D
:100120007114000871140008FD120008091300087A
:10013000711400087114000871140008711400088B
:10014000711400087114000871140008711400087B
:100150007114000815130008211300087114000819
:10016000711400087114000871140008711400085B
:1001700071140008711400087114000800000000D8
:0801800071140008711400085D
:1001900010B5054C237833B9044B13B10448AFF3C1
:1001A00000800123237010BDF00400200000000037
:1001B0004082010808B5034B1BB103490348AFF364
:1001C000008008BD00000000F40400204082010807
:1001D00010F8012B11F8013B012A28BF9A42F7D0F1
:1001E000D01A7047034613F8012B002AFBD1181AC6
:1001F000013870470000000000000000000000000F
:1002000001F0FF01102A2BDB10F0070F08D010F8C7
:10021000013B013A8B422DD010F0070F42B3F6D1CB
:10022000F0B441EA012141EA014122F007047FF0E4
:1002300000070023F0E80256083C85EA010586EA3B
:10024000010685FA47F5A3FA87F586FA47F6A5FA77
:1002500087F68EB9EED1F0BC01F0FF0102F0070283
:1002600032B110F8013B013A83EA010313B1F8D12E
:100270000020704701387047002D06BF354603380F
:10028000073815F0010F07D1013015F4807F02BF48
:10029000013015F4C03F0130F0BC0138704700BF99
:1002A00081F0004102E000BF83F0004330B54FEA27
:1002B00041044FEA430594EA050F08BF90EA020F94
:1002C0001FBF54EA000C55EA020C7FEA645C7FEA27
:1002D000655C00F0E2804FEA5454D4EB5555B8BF4A
:1002E0006D420CDD2C4480EA020281EA030382EABB
:1002F000000083EA010180EA020281EA0303362D4D
:1003000088BF30BD11F0004F4FEA01314FF4801C1F
:100310004CEA113102D0404261EB410113F0004F31
:100320004FEA03334CEA133302D0524263EB4303E8
:1003300094EA050F00F0A780A4F10104D5F1200E86
:100340000DDB02FA0EFC22FA05F2801841F10001E1
:1003500003FA0EF2801843FA05F359410EE0A5F1B5
:1003600020050EF1200E012A03FA0EFC28BF4CF0E6
:10037000020C43FA05F3C01851EBE37101F000459C
:1003800007D54FF0000EDCF1000C7EEB00006EEBA9
:100390000101B1F5801F1BD3B1F5001F0CD3490833
:1003A0005FEA30004FEA3C0C04F101044FEA44528A
:1003B00012F5800F80F09A80BCF1004F08BF5FEA11
:1003C000500C50F1000041EB045141EA050130BDF1
:1003D0005FEA4C0C404141EB0101013C28BFB1F503
:1003E000801FE9D291F0000F04BF01460020B1FA4E
:1003F00081F308BF2033A3F10B03B3F120020CDA21
:100400000C3208DD02F1140CC2F10C0201FA0CF0FE
:1004100021FA02F10CE002F11402D8BFC2F1200C63
:1004200001FA02F120FA0CFCDCBF41EA0C01904019
:10043000E41AA2BF01EB0451294330BD6FEA040462
:100440001F3C1CDA0C340EDC04F11404C4F120024D
:1004500020FA04F001FA02F340EA030021FA04F35F
:1004600045EA030130BDC4F10C04C4F1200220FAB6
:1004700002F001FA04F340EA0300294630BD21FAF4
:1004800004F0294630BD94F0000F83F4801306BFBA
:1004900081F480110134013D4EE77FEA645C18BFAE
:1004A0007FEA655C29D094EA050F08BF90EA020F45
:1004B00005D054EA000C04BF1946104630BD91EA3D
:1004C000030F1EBF0021002030BD5FEA545C05D140
:1004D0004000494128BF41F0004130BD14F580047F
:1004E0003CBF01F5801130BD01F0004545F0FE41F3
:1004F00041F470014FF0000030BD7FEA645C1ABF28
:10050000194610467FEA655C1CBF0B46024650EA5E
:10051000013406BF52EA033591EA030F41F400218A
:1005200030BD00BF90F0000F04BF0021704730B510
:100530004FF4806404F132044FF000054FF00001E5
:1005400050E700BF90F0000F04BF0021704730B5A6
:100550004FF4806404F1320410F0004548BF40427B
:100560004FF000013EE700BF42004FEAE2014FEAD0
:1005700031014FEA02701FBF12F07F4393F07F4FAB
:1005800081F06051704732F07F4208BF704793F0AE
:100590007F4F04BF41F40021704730B54FF46074C1
:1005A00001F0004521F000411CE700BF50EA0102C4
:1005B00008BF704730B54FF000050AE050EA01026D
:1005C00008BF704730B511F0004502D5404261EBDD
:1005D00041014FF4806404F132045FEA915C3FF41E
:1005E000D8AE4FF003025FEADC0C18BF03325FEABB
:1005F000DC0C18BF033202EBDC02C2F1200300FA6C
:1006000003FC20FA02F001FA03FE40EA0E0021FA90
:1006100002F11444BDE600BF70B54FF0FF0C4CF47E
:10062000E06C1CEA11541DBF1CEA135594EA0C0F30
:1006300095EA0C0F00F0DEF82C4481EA030621EA6B
:100640004C5123EA4C5350EA013518BF52EA0335A6
:1006500041F4801143F4801338D0A0FB02CE4FF058
:100660000005E1FB02E506F00042E0FB03E54FF088
:100670000006E1FB03569CF0000F18BF4EF0010E80
:10068000A4F1FF04B6F5007F64F5407404D25FEA7C
:100690004E0E6D4146EB060642EAC62141EA55512F
:1006A0004FEAC52040EA5E504FEACE2EB4F1FD0C71
:1006B00088BFBCF5E06F1ED8BEF1004F08BF5FEAEF
:1006C000500E50F1000041EB045170BD06F00046A1
:1006D00046EA010140EA020081EA0301B4EB5C044E
:1006E000C2BFD4EB0C0541EA045170BD41F4801146
:1006F0004FF0000E013C00F3AB8014F1360FDEBF6B
:10070000002001F0004170BDC4F10004203C35DA46
:100710000C341BDC04F11404C4F1200500FA05F3C9
:1007200020FA04F001FA05F240EA020001F000426A
:1007300021F0004110EBD37021FA04F642EB0601E0
:100740005EEA430E08BF20EAD37070BDC4F10C040A
:10075000C4F1200500FA04F320FA05F001FA04F2CE
:1007600040EA020001F0004110EBD37041F10001BA
:100770005EEA430E08BF20EAD37070BDC4F12005C5
:1007800000FA05F24EEA020E20FA04F301FA05F22D
:1007900043EA020321FA04F001F0004121FA04F2D5
:1007A00020EA020000EBD3705EEA430E08BF20EAA5
:1007B000D37070BD94F0000F0FD101F000464000DF
:1007C00041EB010111F4801F08BF013CF7D041EA61
:1007D000060195F0000F18BF704703F00046520065
:1007E00043EB030313F4801F08BF013DF7D043EA36
:1007F0000603704794EA0C0F0CEA135518BF95EAEC
:100800000C0F0CD050EA410618BF52EA4306D1D172
:1008100081EA030101F000414FF0000070BD50EA91
:10082000410606BF1046194652EA430619D094EA1B
:100830000C0F02D150EA013613D195EA0C0F05D105
:1008400052EA03361CBF104619460AD181EA030159
:1008500001F0004141F0FE4141F470014FF0000011
:1008600070BD41F0FE4141F4780170BD70B54FF0AC
:10087000FF0C4CF4E06C1CEA11541DBF1CEA13552C
:1008800094EA0C0F95EA0C0F00F0A7F8A4EB05040E
:1008900081EA030E52EA03354FEA013100F0888005
:1008A0004FEA03334FF0805545EA131343EA1263CE
:1008B0004FEA022245EA111545EA10654FEA002683
:1008C0000EF000419D4208BF964244F1FD0404F53C
:1008D000407402D25B084FEA3202B61A65EB030598
:1008E0005B084FEA32024FF480104FF4002CB6EB55
:1008F000020E75EB030E22BFB61A754640EA0C00D5
:100900005B084FEA3202B6EB020E75EB030E22BF14
:10091000B61A754640EA5C005B084FEA3202B6EB55
:10092000020E75EB030E22BFB61A754640EA9C0014
:100930005B084FEA3202B6EB020E75EB030E22BFE4
:10094000B61A754640EADC0055EA060E18D04FEAA2
:10095000051545EA16754FEA06164FEAC30343EA42
:1009600052734FEAC2025FEA1C1CC0D111F4801F0F
:100970000BD141EA00014FF000004FF0004CB6E708
:1009800011F4801F04BF01430020B4F1FD0C88BFA7
:10099000BCF5E06F3FF6AFAEB5EB030C04BFB6EBB2
:1009A000020C5FEA500C50F1000041EB045170BDA5
:1009B0000EF0004E4EEA113114EB5C04C2BFD4EBD2
:1009C0000C0541EA045170BD41F480114FF0000E56
:1009D000013C90E645EA060E8DE60CEA135594EAD2
:1009E0000C0F08BF95EA0C0F3FF43BAF94EA0C0FD5
:1009F0000AD150EA01347FF434AF95EA0C0F7FF44A
:100A000025AF104619462CE795EA0C0F06D152EA9D
:100A100003353FF4FDAE1046194622E750EA410681
:100A200018BF52EA43067FF4C5AE50EA41047FF492
:100A30000DAF52EA43057FF4EBAE12E74FF0FF3CF7
:100A400006E000BF4FF0010C02E000BF4FF0010CC8
:100A50004DF804CD4FEA410C7FEA6C5C4FEA430C41
:100A600018BF7FEA6C5C1BD001B050EA410C0CBF90
:100A700052EA430C91EA030F02BF90EA020F0020F2
:100A8000704710F1000F91EA030F58BF994208BF59
:100A900090422CBFD8176FEAE37040F00100704716
:100AA0004FEA410C7FEA6C5C02D150EA013C07D16D
:100AB0004FEA430C7FEA6C5CD6D152EA033CD3D0B8
:100AC0005DF8040B704700BF8446104662468C46B2
:100AD0001946634600E000BF01B5FFF7B7FF0028E5
:100AE00048BF10F1000F01BD4DF808EDFFF7F4FF0E
:100AF0000CBF012000205DF808FB00BF4DF808ED99
:100B0000FFF7EAFF34BF012000205DF808FB00BFBB
:100B10004DF808EDFFF7E0FF94BF012000205DF8DD
:100B200008FB00BF4DF808EDFFF7CEFF94BF012092
:100B300000205DF808FB00BF4DF808EDFFF7C4FF8B
:100B400034BF012000205DF808FB00BF4FEA410CD4
:100B50007FEA6C5C02D150EA013C0AD14FEA430CB7
:100B60007FEA6C5C02D152EA033C02D14FF00000F4
:100B700070474FF0010070474FEA410212F5001232
:100B800015D211D56FF47873B3EB625212D94FEAD4
:100B9000C12343F0004343EA505311F0004F23FABE
:100BA00002F018BF404270474FF00000704750EA13
:100BB000013005D111F0004008BF6FF000407047D0
:100BC0004FF00000704700BF4A0011D212F500122A
:100BD00011D20DD56FF47873B3EB62520ED44FEA95
:100BE000C12343F0004343EA505323FA02F0704715
:100BF0004FF00000704750EA013002D14FF0FF3053
:100C000070474FF0000070474FEA4102B2F1E043F5
:100C100024BFB3F5001CDCF1FE5C0DD901F0004CE3
:100C20004FEAC0024CEA5070B2F1004F40EB830033
:100C300008BF20F00100704711F0804F21D113F15F
:100C40003872BCBF01F00040704741F480114FEA98
:100C50005252C2F11802C2F1200C10FA0CF320FA21
:100C600002F018BF40F001004FEAC1234FEAD3233E
:100C700003FA0CFC40EA0C0023FA02F34FEA4303A8
:100C8000CCE77FEA625307D150EA01331EBF4FF031
:100C9000FE4040F44000704701F0004040F0FE404C
:100CA00040F40000704700BF7BB972B90029BEBF95
:100CB00000204FF0004106E008BF00281CBF6FF085
:100CC00000414FF0FF3000F0EFB9ADF1080C6DE9D5
:100CD00004CE002909DB002B1ADB00F083F8DDF8D5
:100CE00004E0DDE9022304B07047404261EB4101BA
:100CF000002B1BDB00F076F8DDF804E0DDE90223D1
:100D000004B0404261EB4101524263EB4303704740
:100D1000524263EB430300F065F8DDF804E0DDE9DF
:100D2000022304B0404261EB41017047524263EB41
:100D3000430300F057F8DDF804E0DDE9022304B0D6
:100D4000524263EB4303704753B94AB9002908BFC5
:100D500000281CBF4FF0FF314FF0FF3000F0A4B966
:100D6000ADF1080C6DE904CE00F03CF8DDF804E0CC
:100D7000DDE9022304B0704738B5002200230446A1
:100D80000D46FFF7BBFE28B920462946BDE838408E
:100D900000F00AB8204605F1004100F005F8404295
:100DA00061EB410138BD00BFD0B50C4B00220646B7
:100DB0000F46FFF731FCFFF707FF0446FFF7B2FBD2
:100DC000074B0022FFF728FC02460B463046394607
:100DD000FFF76AFAFFF7F8FE2146D0BD0000F03DAC
:100DE0000000F0412DE9F047089D04468C46002B99
:100DF00040F083808A42174647D9B2FA82F242B164
:100E0000C2F1200024FA00F09140974040EA010C22
:100E100094404FEA1748230CBCFBF8F61FFA87FEF4
:100E200008FB16C143EA014306FB0EF1994209D9BA
:100E3000FB1806F1FF3080F01981994240F21681CB
:100E4000023E3B445B1AA4B2B3FBF8F008FB10333C
:100E500044EA034400FB0EFEA64509D93C1900F103
:100E6000FF3380F00581A64540F2028102383C4400
:100E700040EA0640A4EB0E0400261DB1D440002336
:100E8000C5E900433146BDE8F08702B9FFDEB2FA9A
:100E900082F2002A50D1CB1B4FEA174E1FFA87F877
:100EA0000126B3FBFEFC210C0EFB1C3341EA03417F
:100EB00008FB0CF38B4207D979180CF1FF3002D2F2
:100EC0008B4200F2E9808446C91AA3B2B1FBFEF05E
:100ED0000EFB101143EA014408FB00F8A04507D9B6
:100EE0003C1900F1FF3302D2A04500F2D980184628
:100EF000A4EB080440EA0C40BFE78B4209D9002D5F
:100F000000F0B1800026C5E9000130463146BDE859
:100F1000F087B3FA83F6002E4AD18B4202D3824285
:100F200000F2B880841A61EB030101208C46002D89
:100F3000A8D0C5E9004CA5E7C2F1200320FA03F6CA
:100F4000974001FA02F04FEA174ED9403043030CA4
:100F5000B1FBFEF61FFA87F80EFB161143EA0143B8
:100F600006FB08F1994204FA02F409D9FB1806F1CC
:100F7000FF3C80F08D80994240F28A80023E3B44E3
:100F80005B1A81B2B3FBFEF00EFB103341EA034162
:100F900000FB08F38B4207D9791800F1FF3C73D2AC
:100FA0008B4271D902383944CB1A40EA064678E7B9
:100FB000C6F1200C03FA06F422FA0CF31C4320FAC3
:100FC0000CF701FA06F34FEA144E21FA0CF11F4315
:100FD0003B0CB1FBFEF91FFA84F80EFB191143EA32
:100FE000014109FB08FA8A4502FA06F200FA06F303
:100FF00008D9611809F1FF3048D28A4546D9A9F1CC
:1010000002092144A1EB0A01BFB2B1FBFEF00EFBC5
:10101000101147EA014700FB08F8B84507D9E7195E
:1010200000F1FF312ED2B8452CD90238274440EACE
:101030000940A7EB0807A0FB02894F45C646494671
:101040001AD317D05DB1B3EB0E0267EB010707FAB5
:101050000CFCF2404CEA0202F740C5E900270026EA
:101060003146BDE8F0872E4628460BE70646E9E6FE
:101070001846FDE64345E5D2B8EB020E69EB0401E4
:101080000138DFE70846D2E760468DE78146B9E7D9
:10109000664675E730464AE7ACF1020C394413E77F
:1010A00002383C4424E700BF704700BF00B599B048
:1010B00006F088FB0023CDE90E33CDE91033CDE9EE
:1010C0000733CDE90933CDE9033331490093069362
:1010D00002930593086C2F4A40F080500864096C15
:1010E00001F08051009100990193136843F480430B
:1010F0001360136803F48043019301224FF480339B
:10110000CDE90C2302224FF48003CDE912230422FF
:10111000A823CDE914230CA802220723CDE9162326
:10112000019907F017FA08B172B6FEE70F240225FD
:10113000CDE906454FF4805300244FF4A05506A88E
:101140000521CDE908450A9307F0BAFC08B172B64B
:10115000FEE7114B0593022202A8029207F0F8FD68
:1011600008B172B6FEE705F0FFFD05F0B1FD05F030
:1011700067FE05F057FF0BF09BFA06F0F5F806F056
:1011800025F900F095FF06F0D5F80FF031FEFEE7E7
:10119000003802400070004000030800102802D010
:1011A000082802D0704700F027BA00F011BA00BF3B
:1011B000034B02689A4200D0704706F01DBB00BF87
:1011C0000010004072B6FEE7704700BF82B00E4BC1
:1011D00000220092596C41F480415964596C01F429
:1011E0008041009100990192196C41F0805119647D
:1011F0001B6C03F080530193019B0F216FF00100E2
:1012000002B006F03BBB00BF0038024030B50146DB
:1012100089B00022362006F031FB362006F078FB3C
:101220000025164B02951A6C154C42F010021A64F8
:101230001B6C03F0100301A9029303A8029B07F0A3
:1012400065FD07F043FD0F4A0F4925614300A2FBEE
:1012500003239B0C013B40F2E7322046C4E90135F1
:101260002160E26009F064FA10B1012009B030BDDC
:10127000204609F0D3FB09B030BD00BF0038024062
:10128000BC41012083DE1B4300100040FEE700BF8D
:10129000FEE700BFFEE700BFFEE700BFFEE700BFBE
:1012A000FEE700BF082007F049B900BF102007F093
:1012B00045B900BF014806F0E7BD00BFF05401206A
:1012C000014806F0E1BD00BF1056012001480AF0B8
:1012D000B1BC00BF7056012001480AF0ABBC00BF92
:1012E000B4560120014808F09DBC00BFDC5301202A
:1012F000014809F03BBE00BFBC410120014806F097
:10130000C3BD00BFB0550120014806F0BDBD00BF00
:101310001C530120014806F0B7BD00BF7C530120DB
:10132000014806F0B1BD00BF5055012001207047B3
:1013300008B510F09BFF162303604FF0FF3008BD87
:1013400008B510F093FF16230360FEE770B5161E74
:1013500007DD0C468D19AFF3008004F8010BA542A0
:10136000F9D1304670BD00BF70B5161E07DD0C46C2
:101370008D1914F8010BAFF30080AC42F9D130465F
:1013800070BD00BF4FF0FF30704700BF4FF40053F7
:101390004B600020704700BF01207047002070475D
:1013A0000C490D4A0B6810B50C4C121B2BB118449C
:1013B000904207D80860184610BD094B0B601844CE
:1013C0009042F7D910F052FF0C2303604FF0FF3327
:1013D000184610BD10050020000002200004000087
:1013E000C0670120054BD3F888204FF0006142F41C
:1013F0007002C3F888209960704700BF00ED00E0DC
:10140000DFF848D0002103E0114B5B584350043112
:101410001048114B42189A42F6D303E00F4B5B5829
:10142000435004310E480F4B42189A42F6D30E4AED
:1014300002E0002342F8043B0C4B9A42F9D3FFF739
:10144000D1FF10F019FFFFF731FE704700000220B6
:10145000E89F010800000020F0040020D8A4010843
:101460000000001000000010F0040020C067012000
:10147000FEE70000F0B52DED028B524B524D1C687B
:10148000D5F8042120608DB00023CDE90233049308
:10149000002A00F08D8002A89047BDF90E10BDF91A
:1014A00010C0BDF91270BDF90860BDF90A00BDF9A0
:1014B0000C20D5F8F830A1800021A4F806C02781BF
:1014C0006681A081E281CDE90811CDE90A11002BE6
:1014D00074D008A898479FED3D8ADDED0A7A67EE43
:1014E000887A17EE900AFFF73FF841EC100B16F0E0
:1014F00063FEDDED097A67EE887A054617EE900AFD
:10150000FFF732F841EC100B16F056FEDDED087ACD
:1015100067EE887A064617EE900AFFF725F841EC49
:10152000100B16F049FE2DB236B203B2A383258408
:1015300005A80025E6839FED258A0795CDE9055589
:1015400002F034F8DDED057A67EE887A17EE900A3E
:10155000FFF70AF841EC100B16F02EFEDDED067ACF
:10156000608467EE887A17EE900AFEF7FDFF41EC83
:10157000100B16F021FEDDED077AA08467EE887A65
:1015800017EE900AFEF7F0FF41EC100B16F014FE78
:10159000E08468460095ADF8045002F023F8009A04
:1015A000BDF80430A262A3850DB0BDEC028BF0BD86
:1015B000104616461746944611467AE71E461D46C3
:1015C000B4E700BF1C050020E8860020F50936437B
:1015D00008B500220648402106F096FF05F006FFF8
:1015E00005F0A8FE05F0B4FE024B09221A7008BDF2
:1015F00000000240CC05002008B505F0FFFE05F014
:10160000A7FE044A044B506004490A2201201A70C4
:10161000087008BDF8050020CC050020C00500209A
:101620002DE9F04FB64C2378013B83B0092B12D83B
:10163000DFE813F025003D0054006000B4004601CF
:101640007A029E01BB013502AE48AF4A0125002156
:10165000057051602370AD4D2868002837D023787D
:10166000092B00F06B82AA4C2368022B04D00221C4
:101670000FF056FB0223236003B0BDE8F08F00F0AB
:10168000C1FD002840F0A3822070A24DA24A2B6821
:1016900001211160002B00F0B183A04D2B6833B9FC
:1016A0009F480FF065FC286008B901F0BBFF00F00F
:1016B000BDFD0028CFD005F04BFE934B0021C3E9C0
:1016C000001003222270914D28680028CBD1954844
:1016D0000FF04EFC286003B0BDE8F08F924800F098
:1016E00071FD894B00204FF0FF310422C3E9000156
:1016F0002270E8E7844E73685A1C00F01183162BA1
:1017000000F33B82894FDFF85CB2DFF85C82DFF8E0
:101710005C921EE05BF8250000F054FD9AF904503D
:101720006B1C4FF001014FF00A000CD010F096FD39
:101730007F492A46054601F09BF9284600F042FD04
:10174000284610F0D9FE73680133162B736000F33E
:10175000148203EB43050BEB85023968907A4FF056
:10176000010C0CFA00F008424FEA850AECD098F818
:101770000030002B40F0F28188F800C0336801216E
:101780000A20DA44002BC5D0019310F067FD019BBD
:101790000AEB0302054612794946CCE701211E20D7
:1017A00010F05CFD01210646322010F057FD054681
:1017B000304605F0DFFB002800F0FE815D4932462F
:1017C000284601F055F9284600F0FCFC2846FEF7B3
:1017D00009FD00210246284610F0B2FE564B57493B
:1017E000B3F90020284601F043F9284600F0EAFC4E
:1017F0002846FEF7F7FC00210246284610F0A0FE1E
:101800004F4B504993F90020284601F031F9284602
:1018100000F0D8FC2846FEF7E5FC002102462846E9
:1018200010F08EFE9FED480A00F09AFF47490246ED
:10183000284601F01DF9284600F0C4FC2846FEF7B2
:10184000D1FC00210246284610F07AFE40494FF4B0
:101850000052284601F00CF9284600F0B3FC284657
:10186000FEF7C0FC00210246284610F069FE9FEDFD
:10187000390A00F075FF38490246284601F0F8F8A9
:10188000284600F09FFC2846FEF7ACFC00210246EB
:10189000284610F055FE314942F21072284601F0F8
:1018A000E7F8284600F08EFC304610F025FE28466A
:1018B00010F022FE2A4A072106231170237002E746
:1018C00000F08AFC00283FF4C6AE254B1B789A1E18
:1018D000082A3FF6BFAE01A151F822F0C91C00084A
:1018E000E31C0008D31C0008EF1C00085516000874
:1018F0005516000855160008551600084916000828
:10190000CC050020C0050020F8050020F4050020CB
:1019100054860020D4050020EC050020D0050020CE
:101920008C820108788301084C840108140500208A
:10193000A4820108C8820108BA050020E4820108D7
:10194000C6050020F88201082E9E0B3A0C83010880
:1019500020830108A0FEB33B3083010844830108C3
:10196000CD05002094840108E8050020AC82010820
:10197000B349B4480B88B44C0268B4F90040013351
:101980009BB20132A3420B80026080F20C81AF4A0D
:10199000AF49138891F9001001339BB28B42138039
:1019A000FFF691AE002313808DE6AA4F3B680546F3
:1019B000002B40F01282A24E05F0C4FC3388386040
:1019C000002B00F0CD81DFF88482B8F80020002AD7
:1019D00044D19F4A92F90020002A3FD0DFF8D492E8
:1019E0009D4F2846FFF746FD502000F0E9FBD9F84F
:1019F0000030D9F80820D9F804101B68126808686C
:101A00001344A3EB400000F0A9FB3B68590700F129
:101A1000F9821A0700F19082DD0600F13782D9F8C9
:101A200000008E498E4B8F4A451A2D1103FB05F39A
:101A3000013382FB0352A2EBE37202EB42029B1AD8
:101A400003EB4303D9F80420874DC9F8082001EBC4
:101A50000313C9E90030012233882A70DFF8E4A1BA
:101A60007949DAF80020B1F9001001339BB2013254
:101A70008B423380CAF8002080F28B80B8F80030A7
:101A8000734A013392F900209BB29342A8F80030C8
:101A9000FFF6E1AD0023754DA8F80030DCE5744891
:101AA000744D00F08FFB744B744A1B6812687449C4
:101AB000284600F0DDFF284600F084FB714B1B68D0
:101AC00073B1714B714A1B68126871490026C5E9F0
:101AD000006628462E8100F0CBFF284600F072FBFE
:101AE0006C4B6D4A1B686D49126862480026C5E957
:101AF00000662E8100F0BCFF5E485C4D00F062FB8A
:101B0000594B2968187800F07BFC00283FF4A4ADFD
:101B10000B23237001F0B4FD03F0FEFE60480122A8
:101B2000402106F0F1FC97E55E4B5D484F4D0A21E0
:101B300019600122402106F0E7FC8DE500F0DEFD92
:101B4000044678B1584C2368012B3FF495AD2868C2
:101B500001210FF0E5F8012323608DE52C2000F032
:101B60002FFB0BE6504E3368002B3FF485AD286801
:101B700021460FF0D5F834607EE5172B00F0488140
:101B80003368052B7FF667AD002205233260237092
:101B900099E5464A354D138801331380002333807D
:101BA000A8F8003058E54148284C0388002201334A
:101BB000038022800A8086E5DFF8FCC0BCE80F00C5
:101BC00037460FC79CE8030087E80300F6E5384B6B
:101BD0001F491D4A21485B6891F900E0B2F9007085
:101BE000344900F1300283F0040C83F00206DB4339
:101BF000BEEB070E03F001054A6000F160034FF0F1
:101C000000020860CCF3800CC6F3400618BF4FF00A
:101C1000010E8B6010460127D3B2591E042906D845
:101C2000DFE801F050034C4E0800294631B107FAB5
:101C300002F108430133DBB2052B5DD80132EBE73B
:101C4000C2050020BC050020BA050020C405002004
:101C5000C6050020C8050020140500202805002026
:101C6000ABAAAAAA56555555C0050020F405002078
:101C7000E0820108D805002008000020E4050020CB
:101C800054830108D405002094020020F08700202E
:101C90006083010810000020708600206C8301081A
:101CA00000000240EC05002054860020B80500200A
:101CB000104201201C050020B08201083146B5E722
:101CC0006146B3E77146B1E7BC4A23700021117049
:101CD000C1E4BB4A00204FF0FF31C2E9000123708C
:101CE000B9E4B74A0021C2E900112370B3E4B44A51
:101CF000237000211160AEE4B24AB34BB3491060C7
:101D0000AE48B34EB34D00221A800A8002230270FF
:101D10004021B14832602A80237006F0F5FBB4E41C
:101D20003568052D3FF630AF0121322010F096FACC
:101D3000AA4BAB4953F82530032D8CBF50224922C2
:101D4000054600F095FE284600F03CFA284610F0C3
:101D5000D3FB7368A34A0133002173601170CEE492
:101D6000DFF89C92DFF868A2964F2846FFF782FBC7
:101D7000D9F80050492000F023FADAF8000000F00A
:101D8000DBF9286800F0D8F93B685A076ED41907C8
:101D90005BD4DB0646D4D9F800009349934B944AB0
:101DA000864DDFF82882C9F80400471A3F1103FB6B
:101DB00007F3013382FB0372A2EBE37202EB4202F0
:101DC0009B1A03EB430301EB03130122C9F8003014
:101DD000C9F8080033882A7042E605F0B3FA854E48
:101DE00085493B683268C01A0B68824238BF024698
:101DF000984228BF184632600860DCE57F480FF043
:101E0000B7F8286000287FF448AC03F09BFC44E45A
:101E10000A2000F0D5F933684FF0FF320133C6E9EC
:101E20000032AEE6032105F11C0000F0ABF93B687F
:101E3000DF06B0D505F12200032100F0A3F905F17A
:101E40002800032100F09EF9A5E7032105F10A000F
:101E500000F098F93B68590711D41A0799D5032166
:101E600005F1160000F08EF93B6892E7281D03216A
:101E700000F088F93B681807E7D45A0789D5032191
:101E800005F1100000F07EF93B68E6E7D9E9015260
:101E9000D9F8003005F1200105F11A0A019102F18B
:101EA0001A0503F11A0B3AF9023F35F9021F3BF903
:101EB000020F0B4403EBD373A0EB630000F04EF969
:101EC000019B5345EFD13B68D8067FF5A8ADD9E912
:101ED0000152D9F8003005F1200702F1200B263518
:101EE00003F1200A37F9023F3BF9022F3AF9020FBA
:101EF000134403EBD373A0EB630000F02FF9BD4252
:101F0000F0D1D9E90152D9F8003005F1260702F1E4
:101F1000260B2C3503F1260A37F9023F3BF9022F35
:101F20003AF9020F134403EBD373A0EB630000F004
:101F300015F9BD42F0D172E5D9E90152D9F8003066
:101F400005F10E0105F1080A019102F1080503F1FE
:101F5000080B3AF9023F35F9021F3BF9020F0B4417
:101F600003EBD373A0EB630000F0F8F8019B53453B
:101F7000EFD13B68590768D41A077FF54DADD9E911
:101F80000152D9F8003005F11A0105F1140A019146
:101F900002F1140503F1140B3AF9023F35F9021F5F
:101FA0003BF9020F0B4403EBD373A0EB630000F08B
:101FB000D5F8019B5345EFD13B682DE5C0050020C6
:101FC000F805002014050020B8050020C4050020F5
:101FD000BC050020C2050020000002403484010836
:101FE00094820108E805002028050020ABAAAAAACF
:101FF00056555555E4050020080000207C82010854
:102000001C050020D9E90152D9F8003005F108017A
:1020100005F1020A0191951C03F1020B3AF9023F06
:1020200035F9021F3BF9020F0B4403EBD373A0EB0E
:10203000630000F093F8019B5345EFD13B6818070C
:102040003FF57AAF58077FF5E7ACD9E90152D9F8E7
:10205000003005F1140105F10E0A019102F10E059F
:1020600003F10E0B3AF9023F35F9021F3BF9020F5B
:102070000B4403EBD373A0EB630000F06FF8019BFC
:102080005345EFD13B6877E708B5074C074E254627
:102090000EF060FF206005F055F9FFF7C1FA3168D6
:1020A00028460EF0C3FDF3E7F0050020EC05002004
:1020B000F0B5154B154C164D164F174E93E807000B
:1020C00083B000232B8084E80700144D1449019548
:1020D000144A15483B60022500950B8004252021F9
:1020E000118005701149124833804FF400620EF0E0
:1020F000E5FC00F01BFB63780E4A003B18BF012390
:10210000137003B0F0BD00BFCC9F01081042012046
:10211000B8050020BC050020C205002018050020DD
:10212000C4050020BA050020C605002088830108E8
:1021300089200008CC0500207F2810B5044607D967
:1021400064F07F00C0B2E40900F03AF87F2CF7D8C1
:10215000E0B2BDE8104000F033B800BF10B500F0A9
:1021600005FB7F28044607D964F07F00C0B2E4096C
:1021700000F026F87F2CF7D8E0B2BDE8104000F060
:102180001FB800BFD1B170B54E1EB6B200EB460607
:10219000851E35F9020F00F0E9FA7F28044607D9B9
:1021A00064F07F00C0B2E40900F00AF87F2CF7D891
:1021B000E0B200F005F8AE42EBD170BD704700BF51
:1021C00000F04CBA10B50446FEF70CF8C1B2204638
:1021D000BDE8104000F056BA10B500F02BFA0446E6
:1021E00008B1204610BD00F033FA054B4FF0805285
:1021F0001A60BFF34F8FBFF36F8F204610BD00BF33
:1022000004ED00E008B50649064801220BF094FFF2
:1022100008B1002008BD044B40221A70012008BDFF
:10222000005701201C420120000600202DE9F04F3C
:1022300041F2CE03684CE35C85B0042B00F29C8035
:10224000DFE803F0A59E07410300012005B0BDE8CB
:10225000F08F624D05F1090605F10807604829462F
:102260000CF010FE002840F0878032785AB33B789B
:1022700013F01003F2D14C2AF0D172784F2AEDD12D
:10228000B278472AEAD1DFF87081B8F8001044F23A
:1022900042629142E2D198F802204C2ADED158F8ED
:1022A000060C58F8021C009068468DF805308DF831
:1022B00004100FF0CFFFB8F906309842B8BF1846A7
:1022C000A8F80600CAE741F2CC07DFF830C134F9BC
:1022D00007E0444B0EF1010E8CFB0E294FEAEE781D
:1022E000C8EBA9088CFB08654FEAE8760FCBC6EB74
:1022F000A5068CFB0659F517C5EBA9058CFB05C98E
:1023000008EB880CAEEB4C0EEC46ACE80700EA1785
:10231000C2EBA90205EB850002EB820106EB860900
:10232000A8EB4909A6EB4006A5EB410541F2CE0812
:1023300002F1300A0EF1300E09F130093036303535
:102340004FF0010B284804F808B00A2269468DF8BE
:1023500007E08CF800308DF806908DF805608DF858
:1023600004508DF803A00BF049FF28B9E35B042269
:102370005B44E35304F80820002005B0BDE8F08F6B
:1023800041F2CE030020E05405B0BDE8F08F607844
:102390000AF01AFB10F0010507D041F2CE0301222A
:1023A0000020E25405B0BDE8F08F10490C480CF055
:1023B000C1FC20B141F2CE032846E55446E70C4B60
:1023C0000C4D186041F2CE020221C3E90100A15474
:1023D000D86043F8045C39E71C420120D052012048
:1023E00088520120B8850108584A0120A8850108B3
:1023F000C05201204C4F4753E25201206766666687
:1024000070B5F8B1134E144D0C4610E000F006F90B
:102410003368022B4FF00201204601D00EF080FC01
:102420004FF080532B60BFF34F8FBFF36F8F00F0DF
:10243000FBF80028EAD0094A41F2CE030321D15427
:10244000012070BD054606480CF0B2FD0028F2D010
:10245000284670BD5486002004ED00E01C42012097
:10246000D952012070B5184C184D228829888A420B
:1024700082B00BD04FF00003019314D9144B1548D0
:10248000521A92B2194401AB0CF02AF94FF40042EF
:1024900000210F4810F054F80F4A002313702B80CE
:1024A000238002B070BD0A4E0A48C1F5004201AB5C
:1024B000314492B20CF014F92288064801AB31463F
:1024C0000CF00EF9E2E700BF0E8600200A8600201D
:1024D00008060020584A0120098600202DE980487E
:1024E0004FF400424448DFF82CA1444FDFF81C8130
:1024F000DFF82491DFF818B185B0002110F020F842
:102500003F4A002313803F4A8AF8003013803E4A36
:102510003B7013700EE0FFF7A5FF48460CF048FB38
:1025200010B9394A0123137000233B703748052145
:102530000EF07CFB0EF00EFD3B78C8F80000002B7F
:10254000E9D19AF800302BB1FFF78CFF48460CF028
:10255000ABFAEBE72B4A1488294A1588AC42E5D040
:10256000039323D8C5F50046B6B23F2E224B2CD993
:102570005C19DFF89CC004F1400E20686168A26815
:10258000E36866460FC610347445B446F5D140354D
:10259000ADB2B5F5004F08BF002503AB4022184C83
:1025A0005946484625800CF09BF8BFE7621B92B263
:1025B000114B402A28BF40225919584601920FF06A
:1025C000B1FF019A154403ABE9E759193246584661
:1025D0000FF0A8FFC6F14002D5B20D4B0649AC4240
:1025E0002A4603EB06003CBFE2B225460FF09AFFF5
:1025F000721992B2E7E700BF0806002008860020A3
:102600000A8600200E8600200C86002010860020FE
:102610001486002009860020584A0120014B01221F
:102620001A70704708860020014B1878704700BF69
:102630000C860020044A054B10881B88C01AB0FA8B
:1026400080F04009704700BF0E8600200A860020F7
:10265000014B01221A70704709860020074A118831
:102660004B1C9BB210B4B3F5004F054C08BF0023C0
:10267000605413805DF8044B704700BF0E86002045
:102680000806002098B32DE9F0471A4F3D88C5F59C
:1026900000438B42884682461DDADFF85C909EB28A
:1026A0003246514609EB05000FF03CFFA5F500420C
:1026B00002EB0804A4B20AEB0601484622460FF0DA
:1026C00031FFA01981B2B4F5004F08BF00243C804F
:1026D00008B2BDE8F08708485146424628440FF04A
:1026E00021FF05EB080294B21FFA88F1EBE74FF0E7
:1026F000FF3070470E86002008060020094A0A4B6A
:1027000010881B8898420AD098BFA0F50040C01AD4
:1027100080B2B0F5F04F34BF002001207047002098
:10272000704700BF0E8600200A86002000B5084AC8
:10273000084B12680849094883B0CDE900230023FB
:102740004FF480720EF0BAF903B05DF804FB00BFDD
:10275000548600200406002078830108DD24000848
:1027600082B08DED010A019802B07047C31783EA69
:1027700040007047F0EEC07AB0EEE07AB4EEE77A4F
:10278000F1EE10FAB4BFB0EE676AB0EE476AB5EE8C
:10279000406AF1EE10FA46D0B4EEE77AF1EE10FAA4
:1027A0008CBFF0EE675AF0EE475AC5EE866A9FED91
:1027B0001F3A9FED1F6A9FED1F4A9FED1F5ADFEDE5
:1027C0001F3ADFED1F4ADFED1F5AA6EEC36AE6EEA1
:1027D000A34AA6EE864AB7EE006AA6EE845AA6EE93
:1027E000A46AE6EE855AC5EE866AB4EEE77AF1EEA3
:1027F00010FA48BFDFED147AF5EEC00A48BF77EE55
:10280000E66AF1EE10FA48BFDFED107AB5EEC00AC5
:1028100048BF77EEE66AF1EE10FA48BFF1EE666A5D
:10282000B0EE660A7047DFED076ADEE739094E3D14
:10283000E3B59E3E88FA163E45FE7F3F99FB243F56
:1028400069A2163EA7DFA834DB0FC93FDB0F494062
:1028500060EE006AF7EE007AF4EEE76AF1EE10FA45
:1028600037EEE66A26D8B1EEC67A9FED156AF4EE29
:10287000C66AF1EE10FA77EEC77A1EDBF1EEE76A70
:102880009FED105ADFED105A9FED106ADFED107AC0
:10289000E7EE055AA7EE256AE7EE067A66EEA77A16
:1028A000B5EEC00AF1EE10FAD8BFF1EE677AB0EEDD
:1028B000670A7047DFED067AF2E7DFED067AEFE7A9
:1028C000000000B4306E99BC2716983D843459BE80
:1028D000A40DC93F00000000DFED027A20EE270AB8
:1028E000704700BFE12E654290ED024AD1ED027AB9
:1028F000D1ED014A90ED015AD1ED005A90ED006AF8
:10290000D1ED036A90ED037A67EE847AE4EE857A7E
:10291000D5EE867AE6EEC77AC2ED007A90ED004AEF
:10292000D1ED017AD1ED004A90ED015AD1ED035A73
:1029300090ED026AD1ED026A90ED037A67EE847A37
:10294000E4EE857AE5EE867AE6EEC77AC2ED017AA4
:1029500090ED034AD1ED017AD1ED004A90ED025A93
:10296000D1ED025A90ED006AD1ED036A90ED017A43
:1029700067EE847AE4EE857AE5EE867AE6EEC77A4B
:10298000C2ED027AD1ED027A90ED014AD1ED004A12
:1029900090ED035AD1ED035A90ED006AD1ED016A32
:1029A00090ED027A67EE847AE4EE857AE5EE867A37
:1029B000E6EEC77AC2ED037A704700BF00B52DED91
:1029C000028B9FED0C8A83B001AA8DED018A0FF076
:1029D0005FFBDDED017AF4EEC87AF1EE10FAACBFE0
:1029E000B1EEE70AB0EE480A03B0BDEC028B5DF829
:1029F00004FB00BF0000000030B583B0002301AA33
:102A0000019304460D460FF043FBDDED017AF5EE30
:102A1000C07AF1EE10FA19DBF5EE407AF1EE10FA19
:102A200014D09DB1F1EEE76A013DEDB2231D2046C1
:102A300003EB8503F7EE007A87EEA67AD0ED007AF5
:102A400067EE877AE0EC017A9842F7D103B030BDA7
:102A500061B10139C9B2031D03EB8103D0ED007AE6
:102A600067EE807AE0EC017A8342F7D1704700BFCD
:102A70000EB42DE9F04787B00FAD044655F8043B7E
:102A800001951A78591C0291002A00F084800026D2
:102A9000374609E0013604F8012B36B2029B5A1C76
:102AA00002921A78002A77D0252AF3D19A1CADF821
:102AB000027002925878302854D0A0F13003DBB273
:102AC000092B4FF0000857D97828E7D857285AD94A
:102AD000A0F15803202BE1D801A252F823F000BF47
:102AE0008F2D00089D2A00089D2A00089D2A0008B5
:102AF0009D2A00089D2A00089D2A00089D2A00089A
:102B00009D2A00089D2A00089D2A0008812D0008A2
:102B1000E12C00089D2A00089D2A00089D2A000833
:102B20009D2A00089D2A00089D2A00089D2A000869
:102B30009D2A00089D2A0008D92C00089D2A00081B
:102B40009D2A00089D2A00089D2A00084F2C000895
:102B50009D2A0008A92B00089D2A00089D2A00082C
:102B60008F2D0008DA1C02929878A0F13003DBB2B6
:102B7000092B4FF00108A7D80DF102030A2202A980
:102B800000F010FAA0E738B1252887D1013604F803
:102B9000010B36B282E7164600233046237007B099
:102BA000BDE8F04703B070470A2155F8040B002236
:102BB00003AB00F06DF9BDF902009DF80C90B8F17F
:102BC000000F14BF3021202182B2B9F1000F17D0BD
:102BD000002840F35781421E0DF10D0392B29C462E
:102BE0004FF6FF7A04E01FFA8EF2524500F02B8177
:102BF0001CF8018B02F1FF3E10B2B8F1000FF2D1C8
:102C0000002840F33481013A12B222EAE27202F162
:102C10000108424620460FF093FC04EB08001FFA1F
:102C200088F10FFA88F2B9F1000F00F00F810DF171
:102C30000D03044604F8019B13F8019BA118091A1F
:102C400089B2B9F1000FF5D10E4436B226E755F836
:102C500004ABBDF90220D14693B219F8011BA9B10A
:102C6000002A40F3E780531E9BB248464FF6FF7898
:102C700004E01FFA8CF3434500F0DC8010F801EB10
:102C800003F1FF3C1AB2BEF1000FF2D1002A40F36B
:102C9000E3805A1E12B222EAE27202F101084246B1
:102CA000202120460FF04CFC9AF8001004EB08009D
:102CB0001FFA88F30FFA88F2002900F0CB8004464F
:102CC00004F8011BA31819F8011B1B1A9BB2002959
:102CD000F6D11E4436B2E1E655F8043B1E60DDE64F
:102CE00003A955F8040B00F025F9BDF902009DF881
:102CF0000C90B8F1000F14BF3021202182B2B9F13D
:102D0000000F17D0002840F3C080421E0DF10D03C4
:102D100092B29C464FF6FF7A04E01FFA8EF25245BB
:102D200000F08B801CF8018B02F1FF3E10B2B8F16D
:102D3000000FF2D1002840F39E80013A12B222EA3D
:102D4000E27202F10108424620460FF0F9FB04EB63
:102D500008001FFA88F10FFA88F2B9F1000F75D058
:102D60000DF10D03044604F8019B13F8019BA11813
:102D7000091A89B2B9F1000FF5D10E4436B28DE6C9
:102D800055F8043B04F8013B013636B286E6A0F163
:102D90005802B2FA82F2102155F8040B520903AB23
:102DA00000F076F8BDF902009DF80C90B8F1000F24
:102DB00014BF3021202182B2B9F1000F15D00028B4
:102DC0005DDD421E0DF10D0392B29C464FF6FF7A77
:102DD00003E01FFA8EF2524532D01CF8018B02F14B
:102DE000FF3E10B2B8F1000FF3D100283BDD013AED
:102DF00012B222EAE27202F10108424620460FF0C6
:102E00009FFB04EB08001FFA88F10FFA88F2B9F172
:102E1000000F1BD00DF10D03044604F8019B13F8BD
:102E2000019BA118091A89B2B9F1000FF5D10E441E
:102E300036B233E62046002241E72046002291E7E1
:102E400020460022E8E720460022F2E60E4404462F
:102E500036B223E604463CE7002320461A46002902
:102E60007FF42DAFF6E7002120460A46CFE7002188
:102E700020460A46D7E6002120460A466DE720464E
:102E80000022C7E720460022D1E62046002267E75D
:102E9000884270B44FF0010447D301FB04F4B0FB47
:102EA000F4F58D42F9D2FCB16ABB092D05F1570644
:102EB00005F1300210DDB4FBF1F2A14203F8016B21
:102EC00004FB150010D8B0FBF2F5092D144605F1EE
:102ED000570605F13002EEDCA14203F8012BB4FBEA
:102EE000F1F204FB1500EED9002270BC1A70704795
:102EF000A14203F8016BB4FBF1F204FB1500F3D817
:102F0000B0FBF2F51446092D05F1370605F1300244
:102F1000EEDCA14203F8012BB4FBF1F204FB150037
:102F2000EED9002270BC1A7070470546002AEAD11B
:102F3000BBE700BF0028F0B403DA2D2301F8013B02
:102F40004042092806464FF0010307DD03EB8303E7
:102F50005B00B0FBF3F2092AF8D8E3B1104DB6FBE1
:102F6000F3F4A5FB0320C008092C04F1300C04F194
:102F70005707024607D8092B01F801CB03FB14665B
:102F800009D90346EBE7092B01F8017B03FB146623
:102F900001D91346E3E70023F0BC0B70704700BF74
:102FA000CDCCCCCCF0B50D6800260AE0BEF1050F03
:102FB00017D8A0F13704A24213DB15F8010B02FB6E
:102FC0000646A0F13004E7B2092FA0F1610CA0F190
:102FD000410EF0D9BCF1050FE8D8A0F15704A24288
:102FE000EBDA0D601E60F0BD2DE98048084CDFF87B
:102FF0003CB0084FDFF838A0074DDFED089A9FED91
:10300000088A9FED089ADFED088AA9B01AE200BF8E
:10301000B486002058860020C486002000008F431C
:10302000000000390000E842CDCC8C3F9C86002097
:10303000888600206666663F5FED027AB4EEE70A96
:10304000F1EE10FA00F15382F7EE006A30EE667A84
:10305000C6EE807AEA4B282231461EA8B0EEC77A27
:1030600037EE267A97ED00DAD7ED01CA97ED02CA5E
:1030700086EE876A27EE8DDA67EEACCA27EE8CCA39
:1030800083ED006A87ED00DAC7ED01CA87ED02CA59
:103090000FF056FA94ED01AA94ED00BAD4ED03BAFC
:1030A000D4ED02AA0C962AEE2B7A6AEE4B7AABEE9E
:1030B0002A7ACDE90D66EAEEAB7A0F96F0EE006A59
:1030C00097EE26DAD7EEA6CA6AEE0A7A8DED09DA0D
:1030D00017EE900ACDED0ACAFDF746FA6AEEAA7A13
:1030E000804617EE900A8946FDF73EFA02460B46E7
:1030F00040464946FDF7DAF802460B460020C14932
:10310000FDF7D2F802460B46FDF7D0F880461CEEDC
:10311000100A8946FDF728FA02460B464046494602
:10312000FDF7C2F8FDF770FDB8EE007AF9EE007A0F
:103130007AEEAA6A2AEE076A7BEEABBA2BEE077A22
:103140006AEEA7AA0CAA6AEE277A3BEE0BBA3AEE11
:103150000AAA844613460421012204A8CDF82CC0F3
:10316000CDED1C6ACDED266A8DED1D6A8DED207AC0
:10317000CDED217ACDED1FBACDED23BA8DED22BA7A
:10318000CDED24AA8DED25AA0FF060F809AA13460B
:103190000321012268460FF059F81CAA13460421A6
:1031A000032202A80FF052F804AA694602A80EF002
:1031B000A7FF10AA94480CA9CDE91066CDE91266C4
:1031C000FFF792FB8E4B93ED000A042130EE000ACC
:1031D00010A8FFF73DFCBBF900209FED8C4ADDED08
:1031E000112A9AED005A9DED123ADAED015ADDED01
:1031F000133A9AED026ADFED864A864B149606EE84
:10320000902ABBF9022007EE102ABBF90420A2EE97
:10321000845A15AEE3EE045AA3EE846A07EE902AB0
:10322000F8EEE66AB8EEC77AF8EEE77A76EE856AE7
:1032300037EE257A77EE867A66EEA46A27EE247A50
:1032400067EEA47AC3ED006A83ED017AC3ED027ADA
:1032500093E8070086E807006F488AED005A18AA2D
:1032600014A9CAED015A8AED026AFFF73DFB644BCF
:103270009FED6A5AD3ED007A9DED0C6ADDED0D6A83
:103280009DED0E7ADDED0F4ADFED655ADDED182A72
:103290009DED193ADDED1A3A9DED1B4AB2EE002A7A
:1032A00067EE827A26EE056A66EE856A27EE057A73
:1032B00024EE855A27EEC66A67EEE66A27EEC77ADD
:1032C00067EEC57AA2EEA56AE3EE256AA3EEA57ABB
:1032D000E4EE257A534B504894ED004AD4ED014A70
:1032E00094ED025AD4ED035A83ED006AC3ED016AEE
:1032F00034EE066A74EEA66A83ED027AC3ED037AB1
:1033000035EE077A75EEA77A042184ED006AC4EDE4
:10331000016A84ED027AC4ED037AFFF76DFBD4ED08
:10332000027A94ED037A94ED016AD4ED005A3E4E90
:10333000C5ED005A27EE870A67EEA76AB1EE465A36
:10334000A5EE850AE6EE066AB7EE00AAF0EE00AA40
:10335000F0EE4A0AE6EEEA0AB1EE477AF1EE677A53
:1033600030EE000A85ED015A85ED037AC5ED027A4B
:10337000FFF700FA95ED016AD5ED037AD5ED006A05
:1033800095ED027A86ED000A27EEC60AA6EE870AB8
:1033900030EE000AFFF75CFAD5ED036A95ED026A9C
:1033A000D5ED017AD5ED005A86ED010A26EEA67A12
:1033B00026EE270AF0EE477AE6EE067AA5EEA60A92
:1033C000F0EE4A0AE7EEEA0A30EE000AFFF7D2F919
:1033D00086ED020A03F0B6FF144B154E19683268E9
:1033E000144B401A82421B68134938BF02463260B0
:1033F0008342104A086028BF03460A211EE000BF2E
:103400000C0000200000E03FC48600209A54704168
:103410002E9E0BBA7C860020B48600200AD7233C5F
:103420000AD7A33BA486002064860020788600206B
:10343000708600201000002074860020524813601F
:103440000DF0F4FB03F07EFF504B18600DF082FD91
:103450004D4B18604E4B0026D3F804310896CDE949
:10346000066606A89847BDF81830BDF91A20BDF9C0
:103470001C1048485B421BB207EE903A07EE101A48
:10348000F8EEE76A07EE902AB8EEC77AF8EEE77A28
:103490000280B2EE026ABDF81E20438076EEC66A54
:1034A00077EEE97A37EE497A53423A4ABDF820007E
:1034B000918066EE886A67EE887A27EE087ABDF812
:1034C0002220ABF8000003213348C7ED016AC7EDA5
:1034D000007A87ED027AABF80230ABF80420FFF7F0
:1034E0006DFAB4EEE80AF1EE10FA7FF7A5ADBBF97C
:1034F0000030DAED025ADAED004A9AED015A9FEDFA
:10350000276A06EE903ABBF9023007EE103ABBF993
:10351000043007EE903AF8EEE66AB8EEC77AF8EEB5
:10352000E77A76EEA46A77EEA57A37EE057A1C4B39
:1035300066EE866A27EE067A67EE867AC3ED006A43
:1035400083ED017AC3ED027A93E8070019AB83E8B3
:1035500007000023134818931CAA18A9FFF7C4F901
:10356000DFED115A9DED1C6ADDED1D6A9DED1E7AA1
:10357000DDED1F7A26EE256A66EEA56A27EE257A2E
:1035800067EEA57AA6E600BFD886002078860020E0
:10359000E886002094860020588600202E9E0BBAD4
:1035A0007C860020B48600200AD7A33B38B50C4D9A
:1035B00095ED000A0446FFF78FF9F0EE407AC4ED6E
:1035C000007A95ED010AFFF787F9F0EE407AC4ED35
:1035D000017A95ED020AFFF77FF984ED020A38BD02
:1035E0006486002038B50E4D04466868FCF7BCFFC1
:1035F00041EC100B14F0E0FD404220802868FCF7FD
:10360000B3FF41EC100B14F0D7FD6080A868FCF705
:10361000ABFF41EC100B14F0CFFDA08038BD00BF14
:103620008886002070B51049104A114B114C82B0A9
:10363000081D01934FF07E550023032600960D6070
:103640004B60C2E90233C0E90133536015600A4997
:103650000A484FF40072C4E90033C4E902330DF0A4
:103660002DFA02B070BD00BFC4860020B4860020D1
:10367000D4860020A48600208C820108E92F00084F
:1036800008B50D4B586804F08DF80C4B186808B15C
:103690000CF066FE0A4B186808B10CF061FE094B8D
:1036A000186808B10DF03EFA07480122802104F0A5
:1036B0002BFF002008BD00BF14000020E48600207E
:1036C000E0860020DC86002000000240034A92F8D9
:1036D000AC300BB192F8A830037070472400002082
:1036E000034A92F89C300BB192F8983003707047FF
:1036F00024000020044A92F83C300BB192F8383094
:1037000003700020704700BF24000020044A92F894
:103710006C300BB192F8683003700020704700BF26
:1037200024000020044A92F82C310BB192F8283181
:1037300003700020704700BF24000020044A92F864
:103740005C310BB192F8583103700020704700BF14
:1037500024000020044A92F84C300BB192F8483013
:1037600003700020704700BF24000020044A92F834
:103770007C300BB192F8783003700020704700BFA6
:1037800024000020044A92F85C300BB192F85830C3
:1037900003700020704700BF24000020044A92F804
:1037A0008C300BB192F8883003700020704700BF56
:1037B00024000020044A92F84C310BB192F84831B1
:1037C00003700020704700BF24000020044A92F8D4
:1037D0007C310BB192F8783103700020704700BF44
:1037E00024000020002800F0B98070B55D4D2B6AE0
:1037F000002B00F0B080044603F0AAFD5A4B1A7863
:10380000002A40F08880594A1678002E00F08A80FD
:10381000D5ED177A9FED567A95ED156AD5ED146AB8
:1038200084ED016AF4EEC77AF1EE10FAC4ED006A95
:103830007DDC9FED507AF4EEC77AF1EE10FA05D5F3
:103840009FED4D7A77EE877AC5ED177A4B4BC4ED35
:10385000027A93F81C0208B1B3F9180293F82C22EB
:10386000002A75D0B3F9282207EE102AB8EEC77ADD
:1038700093F83C1209B1B3F9381293F84C22002A9C
:1038800063D0B3F9482205EE102AB8EEC55A93F872
:103890005C220AB1B3F9582293F86C52002D51D032
:1038A000B3F9683205EE903AF8EEE55AB4EEC76A1D
:1038B000F1EE10FA44DA07EE100AB8EEC77AB4EE69
:1038C000C76AF1EE10FA94BF01230023F4EEC56A33
:1038D000F1EE10FA637331DA07EE101AB8EEC77A18
:1038E000F4EEC76AF1EE10FA94BF01230023F4EE60
:1038F000E57AF1EE10FA23730ADA07EE102AB8EE31
:10390000C77AB4EEE77AF1EE10FAACBF01260026D2
:10391000A673002070BD6A69801A42F2107290424C
:103920007FF671AF00221A704FF0FF3070BD9FED2F
:10393000127A77EEC77AC5ED177A87E73346D6E76E
:103940003346C3E7DFED0E5AB0E79FED0D5A9EE711
:103950009FED0B7A8CE74FF0FF3070BD4FF0FF30DA
:10396000704700BFE88600200589002004890020F8
:1039700000003443000034C30000B443240000209E
:103980000000000070B50D4E82B004460D46306850
:1039900001924FF0FF310CF0D3FA019AD4F80C32B7
:1039A000294620469847002304461A46306819469F
:1039B0000BF0ACFE204602B070BD00BF14890020A1
:1039C0000020704770B5ADF50E7D05AD40F22312B5
:1039D000002145A80EF0B4FD194B6B6000240323B1
:1039E0002B722C6095E8070048AB03C332260921EF
:1039F0001A7045A8CDE9011623460091FA2201214B
:103A00008DF81D418DF81E418DF81F4102F0A6FC76
:103A1000214628464FF480720EF092FD45A92846B3
:103A200002F0C0FC40B102462946204603F028F9C6
:103A300020460DF50E7D70BD4FF0FF30F9E700BF59
:103A40001208440430B5414B03EB0012ADF5137D71
:103A5000947A032C4FEA001003D1B2F908208A426D
:103A600066D0184407EE901A0181F8EEE77A022139
:103A700042684181002349F60121CDE90433CDE9B3
:103A800006330893ADF81010CDED037A0DF1120353
:103A9000002A55D0146850689168D268CDF8124059
:103AA000CDF81600CDF81A10CDF81E201868596808
:103AB0009A68DB68CDED097A49F601250324ADF853
:103AC00028508DF83A40CDF82A00CDF82E10CDF8C8
:103AD0003220CDF8363009AD0FCD4CAC0FC495E88F
:103AE000030044F8040B24F8021B1723A822090C36
:103AF000CDE9003200252170FA22012149A88DF874
:103B00002D318DF82E518DF82F5102F03BFCFC2207
:103B100029460AA809950EF013FD49A909A802F043
:103B200041FC10F0FF0206D103F012FC084B1860B4
:103B30000DF5137D30BD09A9284603F0A1F8F3E780
:103B40001A605A609A60DA60B0E700BF2400002073
:103B50000C89002001460920FFF774BF01460A20A6
:103B6000FFF770BF08B500EB40011720FFF76AFFB1
:103B7000002008BD08B501461420FFF763FF0020B0
:103B800008BD00BF08B501460820FFF75BFF002015
:103B900008BD00BF08B501460520FFF753FF002010
:103BA00008BD00BF08B501460720FFF74BFF002006
:103BB00008BD00BF08B501460420FFF743FF002001
:103BC00008BD00BF08B500EB40011520FFF73AFF24
:103BD000002008BD08B501461220FFF733FF002082
:103BE00008BD00BF08B501460620FFF72BFF0020E7
:103BF00008BD00BF08B501460320FFF723FF0020E2
:103C000008BD00BF2DE9F047ADF5127D03F0A0FB24
:103C1000894E8A4F0546A6F51C7449F6012802E034
:103C20001034B44259D0A37A012BF9D83B68EB1A6F
:103C3000642BF5D9237B3D60002BF1D1636894F8A8
:103C400000A0ADF80E800DF1100CE646ADF80CA00A
:103C5000002B00F0EC80186859689A68DB68AEE8C1
:103C60000F009CE80F000DF1280989E80F000DF105
:103C7000240EADF824A0ADF82680BEE80F000DF5A7
:103C8000987CACE80F00DEF800201423D6210093C6
:103C90004FF0000A019149A8CCF800200121FA2236
:103CA0008DF82D318DF82EA18DF82FA102F06AFB31
:103CB000602251464846CDF824A00EF041FC49A9A7
:103CC00009A802F06FFB10F0FF0240F0AB80E37A2E
:103CD0000133E3721034B442A5D1594C594F04F565
:103CE0001C764FF0040802E01034B4420DD0A379E2
:103CF000022B0ED0237A002BF6D1E3790A2B88BF52
:103D000084F806801034B442F1D10DF5127DBDE87F
:103D1000F0873B68EB1AB3F5FA7FEBD9B4F90430BE
:103D200022683D6007EE903AF8EEE77A002349F604
:103D30000121CDE90433CDE906330893CDED037AB3
:103D4000ADF810100DF11203002A66D0D2F800C0B1
:103D500050689168D268CDF812C0CDF81600CDF841
:103D60001A10CDF81E20186859689A68DB68CDEDE6
:103D7000097A49F6012E4FF0030CADF828E08DF8D2
:103D80003AC0CDF82A00CDF82E10CDF83220CDF86B
:103D900036300DF1240EBEE80F000DF5987CACE82E
:103DA0000F009EE803004CF8040B2CF8021B1723AD
:103DB000A822090CCDE900324FF000098CF8001060
:103DC000FA22012149A88DF82D318DF82E918DF818
:103DD0002F9102F0D7FAFC2249460AA8CDF8249088
:103DE0000EF0AEFB49A909A802F0DCFA10F0FF02C0
:103DF0000ED1237A13B9E3790133E37100232372DF
:103E0000E37901220A2BA27188BF84F8068079E742
:103E100009A9484602F034FFEBE71A605A609A603D
:103E2000DA60A0E709A9504602F02AFF4FE7CCE983
:103E30000033CCE9023314E7940200200889002003
:103E4000280000200C8900202DE9F04F2DED048B77
:103E5000ADF5637D0022DFF8DC90ADF81A202C4A26
:103E60002C4CDFF8D4A0DFF8D4B0DFED2B8A9FED27
:103E70002B8A9FED2B9A0A231360D9F8003004F5A2
:103E80001C78002B40F0FD8703F05CFAC9F80000B5
:103E90000DF060F8234B244A5B681060D3F8085299
:103EA000224918464FF48072A847002841F01D802F
:103EB00003F04EFA9BF800303BB1DAF81430C01A28
:103EC00042F21073984201F20180194B1B78002BCB
:103ED00000F0FC8703F03CFA9BF80030002B00F068
:103EE000FB87DAF81420801A42F21072904200F236
:103EF000F8870F4A1278002A00F0F387013B022B63
:103F000000F2B587DFE813F0D2071C00DF0700BF1F
:103F1000FC870020240000200000C84200000000B0
:103F200000004842980200201889002000880020E4
:103F300004890020F8870020E886002005890020F9
:103F4000FFF760FE94F8AA31032B03D1B4F9A8312E
:103F5000112B66D0DA4BC4F8A8310023CDE90B331E
:103F6000CDE90D330F93D4F8A421D64B0A9349F62B
:103F70000123ADF82C30002A01F0968113685068B7
:103F80009168CDF82E30D368CDF83200CDF83610D8
:103F9000CDF83A30DDF82E00DDF83210DDF83620AD
:103FA000DDF83A30C74F109749F601260325ADF8E2
:103FB00044608DF85650CDF84600CDF84A10CDF843
:103FC0004E20CDF8523010AE0FCE9CAD0FC596E806
:103FD000030045F8040B25F8021B1723080CA82240
:103FE000CDE9003200262870FA22012199A88DF827
:103FF0006D328DF86E628DF86F6202F0C3F9FC22AB
:10400000314611A810960EF09BFA99A910A802F05B
:10401000C9F910F0FF0241F0DF8003F099F9AA4BD3
:10402000186094F8DA30032B03D1B4F9D830642B3C
:1040300066D00023CDE90B33CDE90D330F93D4F8CF
:10404000D420A24BC4F8D83049F60123CDED0A8A1A
:10405000ADF82C30002A01F06D811368506891682A
:10406000CDF82E30D368CDF83200CDF83610CDF82B
:104070003A30DDF82E00DDF83210DDF83620DDF8BC
:104080003A30CDED108A49F601260325ADF844609B
:104090008DF85650CDF84600CDF84A10CDF84E2098
:1040A000CDF8523010AE0FCE9CAD0FC596E8030090
:1040B00045F8040B25F8021B1723080CA822CDE9AC
:1040C000003200262870FA22012199A88DF86D325D
:1040D0008DF86E628DF86F6202F054F9FC22314661
:1040E00011A810960EF02CFA99A910A802F05AF90E
:1040F00010F0FF0241F06A8003F02AF9724B186059
:1041000094F8FA30032B03D1B4F9F830322B66D08F
:104110000023CDE90B33CDE90D330F93D4F8F42010
:104120006B4BC4F8F83049F601238DED0A9AADF8CF
:104130002C30002A01F0F480136850689168CDF8A3
:104140002E30D368CDF83200CDF83610CDF83A30A5
:10415000DDF82E00DDF83210DDF83620DDF83A30DB
:104160008DED109A49F601260325ADF844608DF8CF
:104170005650CDF84600CDF84A10CDF84E20CDF877
:10418000523010AE0FCE9CAD0FC596E8030045F837
:10419000040B25F8021B1723080CA822CDE90032D6
:1041A00000262870FA22012199A88DF86D328DF829
:1041B0006E628DF86F6202F0E5F8FC22314611A8BC
:1041C00010960EF0BDF999A910A802F0EBF810F0C6
:1041D000FF0240F0F58703F0BBF83B4B186094F802
:1041E000CA30032B03D1B4F9C830642B72D000233A
:1041F000CDE90B33CDE90D330F93D4F8C420334B05
:10420000C4F8C83049F60123CDED0A8AADF82C3048
:10421000002A01F07B80136850689168CDF82E3039
:10422000D368CDF83200CDF83610CDF83A30DDF84D
:104230002E00DDF83210DDF83620DDF83A30CDED15
:10424000108A49F601260325ADF844608DF85650D2
:10425000CDF84600CDF84A10CDF84E20CDF85230BA
:1042600010AE0FCE9CAD0FC596E8030045F8040BC9
:1042700025F8021B1723080CA822CDE900320026DE
:104280002870FA22012199A88DF86D328DF86E629E
:104290008DF86F6202F076F8FC22314611A8109674
:1042A0000EF04EF999A910A802F07CF810F0FF0268
:1042B00040F0808703F04CF8034B18600AE000BF21
:1042C00011000200000088410C89002064000200F7
:1042D0003200020094F8EA30032B03D1B4F9E8303D
:1042E000322B66D00023CDE90B33CDE90D330F938C
:1042F000D4F8E420DB4BC4F8E83049F601238DED17
:104300000A9AADF82C30002A00F09C871368506898
:104310009168CDF82E30D368CDF83200CDF8361044
:10432000CDF83A30DDF82E00DDF83210DDF8362019
:10433000DDF83A308DED109A49F601260325ADF8E7
:1043400044608DF85650CDF84600CDF84A10CDF8AF
:104350004E20CDF8523010AE0FCE9CAD0FC596E872
:10436000030045F8040B25F8021B1723080CA822AC
:10437000CDE9003200262870FA22012199A88DF893
:104380006D328DF86E628DF86F6201F0FBFFFC22DA
:10439000314611A810960EF0D3F899A910A802F092
:1043A00001F810F0FF0240F0478702F0D1FFAE4B5A
:1043B000186094F80A31032B03D1B4F90831002BAB
:1043C00067D00023CDE90B33CDE90D330F93D4F83B
:1043D00004218DED0A8A4FF40033C4F8083149F600
:1043E0000123ADF82C30002A00F054871368506880
:1043F0009168CDF82E30D368CDF83200CDF8361064
:10440000CDF83A30DDF82E00DDF83210DDF8362038
:10441000DDF83A308DED108A49F601260325ADF816
:1044200044608DF85650CDF84600CDF84A10CDF8CE
:104430004E20CDF8523010AE0FCE9CAD0FC596E891
:10444000030045F8040B25F8021B1723080CA822CB
:10445000CDE9003200262870FA22012199A88DF8B2
:104460006D328DF86E628DF86F6201F08BFFFC2269
:10447000314611A810960EF063F899A910A801F022
:1044800091FF10F0FF0240F0D18602F061FF764B01
:10449000186094F81A31032B03D1B4F91831002BAA
:1044A00067D00023CDE90B33CDE90D330F93D4F85A
:1044B00014218DED0A8A4FF40033C4F8183149F6FF
:1044C0000123ADF82C30002A00F0DA86136850681A
:1044D0009168CDF82E30D368CDF83200CDF8361083
:1044E000CDF83A30DDF82E00DDF83210DDF8362058
:1044F000DDF83A308DED108A49F601260325ADF836
:1045000044608DF85650CDF84600CDF84A10CDF8ED
:104510004E20CDF8523010AE0FCE9CAD0FC596E8B0
:10452000030045F8040B25F8021B1723080CA822EA
:10453000CDE9003200262870FA22012199A88DF8D1
:104540006D328DF86E628DF86F6201F01BFFFC22F8
:10455000314611A810960DF0F3FF99A910A801F0AB
:1045600021FF10F0FF0240F05B8602F0F1FE3E4BAF
:10457000186094F86A31032B03D1B4F96831002B29
:1045800067D00023CDE90B33CDE90D330F93D4F879
:1045900064218DED0A8A4FF40033C4F8683149F67E
:1045A0000123ADF82C30002A00F0608613685068B3
:1045B0009168CDF82E30D368CDF83200CDF83610A2
:1045C000CDF83A30DDF82E00DDF83210DDF8362077
:1045D000DDF83A308DED108A49F601260325ADF855
:1045E00044608DF85650CDF84600CDF84A10CDF80D
:1045F0004E20CDF8523010AE0FCE9CAD0FC596E8D0
:10460000030045F8040B25F8021B1723080CA82209
:10461000CDE9003200262870FA22012199A88DF8F0
:104620006D328DF86E628DF86F6201F0ABFEFC2288
:10463000314611A810960DF083FF99A910A801F03A
:10464000B1FE10F0FF0240F0E58502F081FE064B5E
:10465000186094F83A31032B08D1B4F93831642B3F
:104660006BD003E0320002000C8900200023CDE96A
:104670000B33CDE90D330F93D4F83421DC4BC4F860
:10468000383149F60123CDED0A8AADF82C30002AE5
:1046900000F0E285136850689168CDF82E30D36839
:1046A000CDF83200CDF83610CDF83A30DDF82E00D6
:1046B000DDF83210DDF83620DDF83A30CDED108A25
:1046C00049F601260325ADF844608DF85650CDF823
:1046D0004600CDF84A10CDF84E20CDF8523010AE3D
:1046E0000FCE9CAD0FC596E8030045F8040B25F8E6
:1046F000021B1723080CA822CDE9003200262870DF
:10470000FA22012199A88DF86D328DF86E628DF82C
:104710006F6201F037FEFC22314611A810960DF0B1
:104720000FFF99A910A801F03DFE10F0FF0240F024
:104730006B8502F00DFEAF4B186094F88A31032BA5
:1047400003D1B4F98831002B67D00023CDE90B33B6
:10475000CDE90D330F93D4F884218DED0A8A4FF4FF
:104760000033C4F8883149F60123ADF82C30002A13
:1047700000F0B885136850689168CDF82E30D36882
:10478000CDF83200CDF83610CDF83A30DDF82E00F5
:10479000DDF83210DDF83620DDF83A308DED108A84
:1047A00049F601260325ADF844608DF85650CDF842
:1047B0004600CDF84A10CDF84E20CDF8523010AE5C
:1047C0000FCE9CAD0FC596E8030045F8040B25F805
:1047D000021B1723080CA822CDE9003200262870FE
:1047E000FA22012199A88DF86D328DF86E628DF84C
:1047F0006F6201F0C7FDFC22314611A810960DF042
:104800009FFE99A910A801F0CDFD10F0FF0240F025
:10481000F58402F09DFD774B186094F89A31032BD4
:1048200003D1B4F99831002B67D00023CDE90B33C5
:10483000CDE90D330F93D4F894218DED0A8A4FF40E
:104840000033C4F8983149F60123ADF82C30002A22
:1048500000F03E85136850689168CDF82E30D3681B
:10486000CDF83200CDF83610CDF83A30DDF82E0014
:10487000DDF83210DDF83620DDF83A308DED108AA3
:1048800049F601260325ADF844608DF85650CDF861
:104890004600CDF84A10CDF84E20CDF8523010AE7B
:1048A0000FCE9CAD0FC596E8030045F8040B25F824
:1048B000021B1723080CA822CDE90032002628701D
:1048C000FA22012199A88DF86D328DF86E628DF86B
:1048D0006F6201F057FDFC22314611A810960DF0D1
:1048E0002FFE99A910A801F05DFD10F0FF0240F025
:1048F0007F8402F02DFD3F4B186094F8BA31032BF2
:1049000003D1B4F9B831012B68D03B4BC4F8B831AE
:104910000023CDE90B33CDE90D330F93D4F8B42147
:104920004FF07E530A9349F60123ADF82C30002A4C
:1049300000F0C484136850689168CDF82E30D368B5
:10494000CDF83200CDF83610CDF83A30DDF82E0033
:10495000DDF83210DDF83620DDF83A30CDF84600CB
:1049600049F6012603254FF07E57ADF844608DF8D7
:1049700056501097CDF84A10CDF84E20CDF8523051
:1049800010AE0FCE9CAD0FC596E8030045F8040BA2
:1049900025F8021B1723080CA822CDE900320026B7
:1049A0002870FA22012199A88DF86D328DF86E6277
:1049B0008DF86F6201F0E6FCFC22314611A81096DA
:1049C0000DF0BEFD99A910A801F0ECFC10F0FF025B
:1049D00040F0088402F0BCFC064B186094F8CA3121
:1049E000032B0BD1B4F9C831012B70D006E000BF06
:1049F000640002000C89002001000200DC4BC4F8B6
:104A0000C8310023CDE90B33CDE90D330F93D4F832
:104A1000C4214FF07E530A9349F60123ADF82C30A0
:104A2000002A00F06984136850689168CDF82E3030
:104A3000D368CDF83200CDF83610CDF83A30DDF835
:104A40002E00DDF83210DDF83620DDF83A30CDF8F2
:104A5000460049F6012603254FF07E57ADF8446025
:104A60008DF856501097CDF84A10CDF84E20CDF85D
:104A7000523010AE0FCE9CAD0FC596E8030045F83E
:104A8000040B25F8021B1723080CA822CDE90032DD
:104A900000262870FA22012199A88DF86D328DF830
:104AA0006E628DF86F6201F06DFCFC22314611A838
:104AB00010960DF045FD99A910A801F073FC10F0B7
:104AC000FF0240F0728302F043FCAA4B186094F896
:104AD000DA31032B03D1B4F9D831002B67D000238E
:104AE000CDE90B33CDE90D330F93D4F8D4218DEDFF
:104AF0000A8A4FF40033C4F8D83149F60123ADF8DF
:104B00002C30002A00F03B84136850689168CDF87F
:104B10002E30D368CDF83200CDF83610CDF83A30CB
:104B2000DDF82E00DDF83210DDF83620DDF83A3001
:104B30008DED108A49F601260325ADF844608DF805
:104B40005650CDF84600CDF84A10CDF84E20CDF89D
:104B5000523010AE0FCE9CAD0FC596E8030045F85D
:104B6000040B25F8021B1723080CA822CDE90032FC
:104B700000262870FA22012199A88DF86D328DF84F
:104B80006E628DF86F6201F0FDFBFC22314611A8C8
:104B900010960DF0D5FC99A910A801F003FC10F0B7
:104BA000FF0240F0FD8202F0D3FB724B186094F8D4
:104BB000EA31032B03D1B4F9E831002B67D000238D
:104BC000CDE90B33CDE90D330F93D4F8E4218DED0E
:104BD0000A8A4FF40033C4F8E83149F60123ADF8EE
:104BE0002C30002A00F0C283136850689168CDF819
:104BF0002E30D368CDF83200CDF83610CDF83A30EB
:104C0000DDF82E00DDF83210DDF83620DDF83A3020
:104C10008DED108A49F601260325ADF844608DF824
:104C20005650CDF84600CDF84A10CDF84E20CDF8BC
:104C3000523010AE0FCE9CAD0FC596E8030045F87C
:104C4000040B25F8021B1723080CA822CDE900321B
:104C500000262870FA22012199A88DF86D328DF86E
:104C60006E628DF86F6201F08DFBFC22314611A857
:104C700010960DF065FC99A910A801F093FB10F0B7
:104C8000FF0240F0888202F063FB3A4B186094F810
:104C90000A32032B03D1B4F90832642B6ED00023FF
:104CA000CDE90B33CDE90D330F93D4F80422324B09
:104CB000C4F8083249F60123CDED0A8AADF82C304C
:104CC000002A00F04A83136850689168CDF82E30AE
:104CD000D368CDF83200CDF83610CDF83A30DDF893
:104CE0002E00DDF83210DDF83620DDF83A30CDED5B
:104CF000108A49F601260325ADF844608DF8565018
:104D0000CDF84600CDF84A10CDF84E20CDF85230FF
:104D100010AE0FCE9CAD0FC596E8030045F8040B0E
:104D200025F8021B1723080CA822CDE90032002623
:104D30002870FA22012199A88DF86D328DF86E62E3
:104D40008DF86F6201F01EFBFC22314611A810960F
:104D50000DF0F6FB99A910A801F024FB10F0FF025A
:104D600040F0148202F0F4FA024B186006E000BF33
:104D7000010002000C8900206400020094F8FA315E
:104D8000032B03D1B4F9F831642B66D00023CDE9AD
:104D90000B33CDE90D330F93D4F8F421CC4BC4F889
:104DA000F83149F60123CDED0A8AADF82C30002AFE
:104DB00000F0CA82136850689168CDF82E30D3682D
:104DC000CDF83200CDF83610CDF83A30DDF82E00AF
:104DD000DDF83210DDF83620DDF83A30CDED108AFE
:104DE00049F601260325ADF844608DF85650CDF8FC
:104DF0004600CDF84A10CDF84E20CDF8523010AE16
:104E00000FCE9CAD0FC596E8030045F8040B25F8BE
:104E1000021B1723080CA822CDE9003200262870B7
:104E2000FA22012199A88DF86D328DF86E628DF805
:104E30006F6201F0A7FAFC22314611A810960DF01E
:104E40007FFB99A910A801F0ADFA10F0FF0240F025
:104E5000988102F07DFA9F4B1860DAF8F430032055
:104E60009847DAF8F030984703238BF800309A4BD4
:104E70009A4819680BF0DAFED9F80030002B3FF49D
:104E800003A802F05FFA964DD9F80010954E2A68F3
:104E90003368401A824238BF024693492A608342EF
:104EA00028BF034608603360FEF7EEBFFEF7AAFE98
:104EB0008E4B9A7A1033002AD9D04345F9D1022378
:104EC0008BF80030D3E7FEF79DFED0E700238BF888
:104ED0000030FEF777FDCAE7854A1278002A40F0D5
:104EE000408100238BF80030C1E7824D2B460344FC
:104EF000039303E0039B9D423EF4DAAF15F8011BD8
:104F000004AB50AA002001F0C5FA0028F2D0529A52
:104F1000B2F5E05FC2F3172380F00A811B2BE9D8BA
:104F200001A252F823F000BF4F500008275000089C
:104F3000F54E0008F54E0008F54E0008F54E000845
:104F4000F54E0008F54E0008F54E0008F54E000835
:104F5000F54E0008F54E0008F54E0008F54E000825
:104F6000F54E0008F54E0008F54E0008F54E000815
:104F7000F54E0008F54E0008F54E0008F54E000805
:104F8000C14F0008F54E0008F54E0008F54E000828
:104F9000F54E0008994F00089DF8437156481D22B0
:104FA000974228BF174600210DF0CAFA3A4653A986
:104FB00051480DF0B7FA02F0CBF9CAF8240099E78E
:104FC0004E4B4A4F18684FF0FF310AF0B9FF9DF879
:104FD0004321192A4FF0000628BF192253A999A886
:104FE000CDE99966CDE99B66CDE99D668DF87C6239
:104FF0000DF098FA02E00136272E47D079689BA879
:10500000FBF7E6F810370028F5D104EB061201276C
:10501000917AD07217733301042937D8DFE801F091
:105020002C72473E2C009DF8437135481F22974251
:1050300028BF174600210DF083FA3A4653A930489D
:105040000DF070FA02F084F9CAF8180052E7FEF782
:10505000B9FC9DF84321092A28BF092253A999A820
:105060000DF060FA224A0123137002F071F902F088
:105070006FF9CAF814003DE7DDED997AFDEEE77AA5
:10508000234417EE901A032219819A721B480023B9
:105090001A46194600680AF039FB2BE7DDED997ACC
:1050A000FDEEE77A234417EE902A1A81EEE72344B7
:1050B0009DED997AB3F9082007EE902AF8EEE77A89
:1050C000B4EE677AF1EE10FAE0D103229A72DDE7CE
:1050D000640002000C890020FC8700201889002051
:1050E000F087002094020020F48700202400002094
:1050F00004890020008800204887002010890020B3
:105100001487002023449DED997AB3F9082007EE17
:10511000902AF8EEE77AF4EE477AF1EE10FAB5D17C
:10512000BDEEC77A032217EE101A9A721981ADE705
:1051300040F2091293427FF4DDAE9DF84321954879
:105140000023142AC0E90033C0E9023328BF142227
:1051500053A903610DF0E6F902F0FAF8CAF820004D
:10516000C8E68D498D4A0B608D490B60138193729F
:10517000D372137310329045F8D101238BF80030AD
:1051800075E6304610A901F07BFD62E6304610A9B5
:1051900001F076FDE6E5304610A901F071FD72E5FB
:1051A000304610A901F06CFDFDE4304610A901F075
:1051B00067FD88E4304610A901F062FDFFF77AB878
:1051C000304610A901F05CFDFFF705B8304610A984
:1051D00001F056FDFEF790BF304610A901F050FDDA
:1051E000FEF71BBF304610A901F04AFDFFF7F2BBE6
:1051F000304610A901F044FDFFF77BBB304610A9F3
:1052000001F03EFDFFF705BB304610A901F038FD67
:10521000FFF78FBA304610A901F032FDFFF715BA3B
:10522000304610A901F02CFDFFF79FB9304610A9B8
:1052300001F026FDFFF729B9304610A901F020FD45
:10524000FFF7B3B8CDF82E20CDF83220CDF83620B8
:10525000CDF83A20FFF766B8CDF82E20CDF83220F1
:10526000CDF83620CDF83A20FFF720BACDF82E2021
:10527000CDF83220CDF83620CDF83A20FFF7A2B98C
:10528000CDF82E20CDF83220CDF83620CDF83A20BA
:10529000FFF728B9CDF82E20CDF83220CDF83620F2
:1052A000CDF83A20FFF7AEB8CDF82E20CDF8322059
:1052B000CDF83620CDF83A20FEF76CBECDF82E2082
:1052C000CDF83220CDF83620CDF83A20FFF73EBB9E
:1052D000CDF82E20CDF83220CDF83620CDF83A206A
:1052E000FFF7C4BACDF82E20CDF83220CDF8362005
:1052F000CDF83A20FFF74ABACDF82E20CDF832206B
:10530000CDF83620CDF83A20FFF799BBCDF82E2006
:10531000CDF83220CDF83620CDF83A20FEF787BF01
:10532000CDF82E20CDF83220CDF83620CDF83A2019
:10533000FEF70EBFCDF82E20CDF83220CDF8362066
:10534000CDF83A20FEF795BECDF82E20CDF83220CC
:10535000CDF83620CDF83A2038E5CDF82E20CDF81E
:105360003220CDF83620CDF83A20B8E4CDF82E2002
:10537000CDF83220CDF83620CDF83A2040E4CDF8F3
:105380002E20CDF83220CDF83620CDF83A20FFF788
:10539000C7BB00BF348700200889002024000020FC
:1053A0000C89002008B501F0D3FF084B1A7832B100
:1053B000074A516942F21072401A904203D8054AD6
:1053C000107800B108BD0020187008BD05890020C4
:1053D000E88600200489002000283DD038B5204D03
:1053E0006B6AB3B3044601F0B3FF1E4B1A782ABBB5
:1053F0001D4A127842B3B5F97410B5F97620B5F9A3
:10540000783001EB8101490007EE901A02EB82022D
:105410005200F8EEE76A03EB830307EE902A5B0085
:10542000B8EEE77A07EE903AF8EEE77AC4ED016A53
:1054300084ED007AC4ED027A002038BD6A69801AD2
:1054400042F210729042D3D900221A704FF0FF300E
:1054500038BD4FF0FF3038BD4FF0FF30704700BF10
:10546000E8860020058900200489002010B338B5A3
:10547000124D6B6ADBB1044601F06AFF104B1A78DB
:1054800052B9104A12786AB1D5E91A23296FA1607E
:1054900022606360002038BD6A69801A42F210728F
:1054A0009042EED900221A704FF0FF3038BD4FF015
:1054B000FF3038BD4FF0FF30704700BFE886002056
:1054C000058900200489002070B5ADF50E7D01F03E
:1054D0003FFF294B1A7832B1284A516942F21072C3
:1054E000401A904240D8264A1278002A3CD0254AD9
:1054F0000C92002300264FF080420B9205930693F6
:105500000793089309930A938DF8346005AD0FCD86
:1055100048AC0FC40FCD0FC42B6823704C21334609
:105520002124FA228DF81D119825012145A8CDE9E5
:1055300001458DF81E618DF81F61009400F00EFF8B
:105540004FF48072314605A80CF0FAFF45A905A872
:1055500000F028FF024648B1304605A901F090FB53
:1055600030460DF50E7D70BD00221A704FF0FF30F1
:105570000DF50E7D70BD00BF05890020E886002076
:10558000048900202379FA9AF0B52DED028BADF550
:105590000F7D08EE100A01F0DBFE2F4B1A7832B1B6
:1055A0002E4A516942F21072401A90424BD82C4A4E
:1055B0001278002A47D040F223120021B8EE488A20
:1055C00045A80CF0BDFF00260023264A8DED0A8A6F
:1055D0004FF081410B910C9205930693079308932A
:1055E00009938DF8346005AD0FCD48AC0FC40FCDD5
:1055F0000FC4296821704C238DF81D3121253346B5
:10560000FA220121982745A8CDE901578DF81E619E
:105610008DF81F61009500F0A1FE4FF480723146B5
:1056200005A80CF08DFF45A905A800F0BBFE0246B9
:1056300058B1304605A901F023FB30460DF50F7D2A
:10564000BDEC028BF0BD00221A704FF0FF300DF55B
:105650000F7DBDEC028BF0BD05890020E88600209F
:10566000048900202379FA9A00285DD038B5314D9D
:10567000AB69002B55D0044601F06AFE2E4B1A7818
:10568000002A41D12D4A1178002943D0B5F8423083
:1056900044F20402134242D0DB4303F00102284BE0
:1056A000E27093F82C212170012161700AB193F806
:1056B0002821627193F85C210AB193F85821227273
:1056C00093F84C210AB193F84821A27193F87C21F8
:1056D0000AB193F87821627293F81C2272B193F8A0
:1056E0002C225AB1B3F91812B3F9282211F5617FAF
:1056F0001DDCB2F5E17FB4BF002201220020E07280
:10570000A0722073A27038BD6A69801A42F21072CA
:105710009042B7D900221A704FF0FF3038BDD90B34
:10572000BAE74FF0FF3038BD4FF0FF30704700222E
:10573000E4E700BFE88600200589002004890020F6
:1057400024000020F0B54FF4E13083B001F0F2FF07
:10575000484B494A5860002518469A605D7001F030
:105760009FFA29464FF480724448454C454E464FB7
:105770000CF0E6FE01200AF0BFF9444B024601207E
:105780001A600AF0B9F9424B424A1860C4F8F42092
:1057900041494248424AC4F88810C4F88C00C4F811
:1057A000902040494048414AC4F89410C4F89800F9
:1057B000C4F89C203E493F483F4AC4F8A410C4F8AE
:1057C000A000C4F8A8203D493D483E4AC4F8AC10AA
:1057D000C4F8B000C4F8B4203B493C483C4AC4F883
:1057E000B810C4F8BC00C4F8C0203A493A483B4A53
:1057F000C4F8C410C4F8C800C4F8CC2038493948EB
:10580000394AC4F8D410C4F8D000C4F8D8203749B5
:105810003748384AC4F8DC100321C4E90555C4E907
:105820000755C4E90955C4F8F070C4E93802CDE958
:105830000016314A31493248C4F8E820C4F8EC1067
:10584000C4F8F8002F4A30493048C4F8FC20C4F8A6
:105850000011C4F804012E492E482B464FF48062F3
:105860000BF02CF93068B0FA80F04009404203B0E8
:10587000F0BD00BF98020020853900080088002094
:10588000E886002000890020C954000814890020FF
:105890001089002089550008A5530008F53B000831
:1058A000F5360008E53B00080D370008D53B000839
:1058B00025370008C53B00083D370008B53B000808
:1058C00055370008A53B00086D370008953B0008D8
:1058D00085370008853B00089D370008753B0008A8
:1058E000B5370008653B0008CD3700085D3B000870
:1058F000CD360008553B0008E1360008C1390008E4
:10590000E537000869560008D95300086D540008AF
:105910007C820108493E000808B50A4B586801F02E
:1059200041FF094B186808B10AF01AFD074B1868C7
:1059300008B10AF015FD064B186808B10BF0F2F833
:10594000002008BD98020020148900201089002042
:10595000008900202DE9F04F0468DFB0D3001B1947
:10596000824601920291036002D34368013343608F
:10597000019BC4F3C504002B00F017820AF1280331
:10598000039303E0019B002B00F00F82019BC4F105
:105990004002DDE902109A4228BF1A469B1A019381
:1059A0000B4620441344144402930CF0BBFD402CDE
:1059B000E8D19AF831109AF82B209AF832500491D5
:1059C0009AF82A309AF829B09AF828909AF82F80F5
:1059D0009AF82EE09AF82DC09AF82C709AF8336055
:1059E0009AF830409AF837009AF836108DF8382037
:1059F0008DF841509AF83520049D8DF839308DF896
:105A00003AB09AF834308DF83B908DF83C808DF8A0
:105A10003DE08DF83EC08DF83F708DF840608DF808
:105A200042508DF843408DF844008DF845108DF8B4
:105A300046209AF841109AF8425004919AF83B2077
:105A40009AF839B09AF838909AF83F809AF83EE080
:105A50009AF83DC09AF83C709AF843609AF8404032
:105A60009AF847009AF846108DF847308DF8515053
:105A70009AF83A30049D8DF848208DF849309AF80C
:105A800045209AF844308DF84AB08DF84B908DF847
:105A90004C808DF84DE08DF84EC08DF84F708DF82C
:105AA00050608DF852508DF853408DF854008DF8A9
:105AB00055109AF851109AF8525004919AF849B03A
:105AC0009AF848909AF84F809AF84EE09AF84DC0AC
:105AD0009AF84C709AF853609AF850409AF8561019
