:020000040800F2
:1000000000000220E9150008E1080008E3080008E4
:10001000E5080008E7080008E908000800000000FB
:10002000000000000000000000000000EB080008D5
:10003000ED08000800000000EF080008F1080008C3
:100040003916000839160008391600083916000854
:100050003916000839160008391600083916000844
:100060003916000839160008391600083916000834
:100070003916000839160008391600083916000824
:100080003916000839160008391600083916000814
:100090003916000839160008391600083916000804
:1000A00039160008391600083916000839160008F4
:1000B00039160008391600083916000839160008E4
:1000C00039160008391600083916000839160008D4
:1000D00039160008391600083916000839160008C4
:1000E00039160008391600083916000839160008B4
:1000F00039160008391600083916000839160008A4
:100100003916000839160008391600083916000893
:100110003916000839160008391600083916000883
:100120003916000839160008391600083916000873
:100130003916000839160008391600083916000863
:100140003916000839160008391600083916000853
:100150003916000839160008391600083916000843
:100160003916000839160008391600083916000833
:10017000391600083916000839160008000000007A
:080180003916000839160008C9
:100188000348044B834202D0034B03B1184770471E
:100198000C0000200C000020000000000548064963
:1001A8000B1AD90F01EBA301491002D0034B03B17D
:1001B800184770470C0000200C00002000000000C9
:1001C80010B5064C237843B9FFF7DAFF044B13B197
:1001D8000448AFF300800123237010BD0C000020F9
:1001E800000000003C16000808B5044B1BB1044988
:1001F8000448AFF30080BDE80840CFE700000000E6
:10020800100000203C16000870B50D4E0D4D761BF1
:10021800B61006D00024013455F8043B9847A6428E
:10022800F9D1094E094D761B01F004FAB61006D033
:100238000024013455F8043B9847A642F9D170BD13
:100248009C1600089C160008A01600089C160008BA
:10025800F0B4860746D0541E002A3CD0CAB20346E2
:1002680002E014F1FF3436D303F8012B9D07F8D1CF
:10027800032C29D9CDB245EA05250F2C45EA0545B9
:1002880033D9A4F11006360903F1200707EB061746
:1002980003F1100242E9045542E902551032BA420C
:1002A800F8D1721C14F00C0F03EB021204F00F06C5
:1002B80013D0331F23F003030433134442F8045BC1
:1002C8009342FBD106F003042CB1C9B21C4403F8D5
:1002D800011B9C42FBD1F0BC704734461346002CEE
:1002E800F3D1F8E714460346C2E71A462646E0E784
:1002F80053B94AB9002908BF00281CBF4FF0FF3185
:100308004FF0FF3000F06EB9ADF1080C6DE904CE86
:1003180000F006F8DDF804E0DDE9022304B07047D8
:100328002DE9F047089D04468C46002B40F0838059
:100338008A42174647D9B2FA82F242B1C2F1200086
:1003480024FA00F09140974040EA010C94404FEAAB
:100358001748230CBCFBF8F61FFA87FE08FB16C1EA
:1003680043EA014306FB0EF1994209D9FB1806F14D
:10037800FF3080F01981994240F21681023E3B44D9
:100388005B1AA4B2B3FBF8F008FB103344EA034449
:1003980000FB0EFEA64509D93C1900F1FF3380F099
:1003A8000581A64540F2028102383C4440EA0640F5
:1003B800A4EB0E0400261DB1D4400023C5E9004378
:1003C8003146BDE8F08702B9FFDEB2FA82F2002AB0
:1003D80050D1CB1B4FEA174E1FFA87F80126B3FB03
:1003E800FEFC210C0EFB1C3341EA034108FB0CF315
:1003F8008B4207D979180CF1FF3002D28B4200F2F8
:10040800E9808446C91AA3B2B1FBFEF00EFB1011B5
:1004180043EA014408FB00F8A04507D93C1900F15C
:10042800FF3302D2A04500F2D9801846A4EB080495
:1004380040EA0C40BFE78B4209D9002D00F0B1809B
:100448000026C5E9000130463146BDE8F087B3FA19
:1004580083F6002E4AD18B4202D3824200F2B88042
:10046800841A61EB030101208C46002DA8D0C5E950
:10047800004CA5E7C2F1200320FA03F6974001FAE1
:1004880002F04FEA174ED9403043030CB1FBFEF699
:100498001FFA87F80EFB161143EA014306FB08F121
:1004A800994204FA02F409D9FB1806F1FF3C80F0DE
:1004B8008D80994240F28A80023E3B445B1A81B2A9
:1004C800B3FBFEF00EFB103341EA034100FB08F3D7
:1004D8008B4207D9791800F1FF3C73D28B4271D94E
:1004E80002383944CB1A40EA064678E7C6F1200CB0
:1004F80003FA06F422FA0CF31C4320FA0CF701FA6B
:1005080006F34FEA144E21FA0CF11F433B0CB1FBE2
:10051800FEF91FFA84F80EFB191143EA014109FBA1
:1005280008FA8A4502FA06F200FA06F308D96118B1
:1005380009F1FF3048D28A4546D9A9F10209214478
:10054800A1EB0A01BFB2B1FBFEF00EFB101147EAA6
:10055800014700FB08F8B84507D9E71900F1FF3152
:100568002ED2B8452CD90238274440EA0940A7EBD7
:100578000807A0FB02894F45C64649461AD317D03B
:100588005DB1B3EB0E0267EB010707FA0CFCF24012
:100598004CEA0202F740C5E9002700263146BDE8CB
:1005A800F0872E4628460BE70646E9E61846FDE69C
:1005B8004345E5D2B8EB020E69EB04010138DFE7E9
:1005C8000846D2E760468DE78146B9E7664675E793
:1005D80030464AE7ACF1020C394413E702383C4490
:1005E80024E700BF704700BF72B6FEE700B595B0BC
:1005F8003022002108A8FFF72BFE00230393049361
:100608000593069307930193204A116C41F080519A
:100618001164126C02F080520192019A02931C4BF1
:100628001A6842F480421A601B6803F480430293FC
:10063800029B012308934FF48033099302220E9200
:100648004FF480030F9304231093A8211191129261
:10065800139308A800F0C6FA98B90F23039302234E
:100668000493002305934FF4A05306934FF480534B
:100678000793052103A800F017FD20B915B05DF810
:1006880004FBFFF7B1FFFFF7AFFF00BF00380240E0
:100698000070004000B58BB000F058FFFFF7A6FFD0
:1006A80000F034F800F080F800F098F86C46144D2B
:1006B8000FCD0FC42B6823700023CDF81130CDF86F
:1006C8001530CDF81930CDF81D30CDF8213009930B
:1006D800012240210B4800F0A7FE64232822694626
:1006E800094800F012FA074C8021204600F0A2FECB
:1006F8004021204600F09EFEC82000F053FFECE7A2
:10070800541600080000024028000020F0B589B007
:1007180000240394049405940694079400941F4BB2
:100728001A6B42F080021A631A6B02F08002009280
:10073800009A01941A6B42F001021A631A6B02F0D4
:1007480001020192019A02941A6B42F008021A639C
:100758001B6B03F008030293029B114F2246C02132
:10076800384600F061FE0F4D22460221284600F06F
:100778005BFEC0230393012604960594069403A9FF
:10078800384600F067FD0223039304960594069407
:1007980003A9284600F05EFD09B0F0BD003802400C
:1007A80000000240000C024008B50A480A4B0360EA
:1007B8004FF4E133436000238360C36003610C227C
:1007C80042618361C36100F071F900B908BDFFF7A8
:1007D8000BFFFBE7280000200010014008B50A487D
:1007E8000A4B03604FF4E133436000238360C36026
:1007F80003610C2242618361C36100F057F900B9BB
:1008080008BDFFF7F1FEFBE76C0000200044004044
:1008180000B58BB0002305930693079308930993BB
:100828000368294A934205D0284A934227D00BB03F
:100838005DF804FB00220192254B596C41F0100130
:100848005964596C01F01001019101990292196BD8
:1008580041F0010119631B6B03F001030293029B32
:100868004FF4C0630593022306930792032308936A
:100878000723099305A9174800F0ECFCD7E70022E5
:100888000392134B196C41F400311964196C01F48B
:100898000031039103990492196B41F00101196326
:1008A8001B6B03F001030493049B0C2305930223A1
:1008B80006930792032308930723099305A905487C
:1008C80000F0C8FCB3E700BF00100140004400403E
:1008D8000038024000000240FEE7FEE7FEE7FEE7C0
:1008E800FEE770477047704708B500F049FE08BD3D
:1008F80082B0002100910B4B5A6C42F480425A643A
:100908005A6C02F480420092009A01911A6C42F0EB
:1009180080521A641B6C03F080530193019B02B050
:10092800704700BF0038024070B50446026813697A
:1009380023F44053C1680B4313618368026913436E
:1009480042691343C2691A430168CB6823F416430A
:1009580023F00C031343CB600268536923F44073FC
:1009680081690B4353610368344A934206D002F508
:100978008062934202D000F04DFC01E000F05AFC86
:10098800E369B3F5004F2AD00026051846EB0601A7
:100998002D1846EB0101CB0043EA5573EA001546D2
:1009A800194663689A009B0F281846EB0101FFF768
:1009B8009FFC234DA5FB00325109642303FB11035F
:1009C8001B013233A5FB03235B0903F0F00202EBA2
:1009D800011203F00F03216813448B6070BD0026D9
:1009E800051846EB06012D1846EB0101CB0043EA3A
:1009F8005573EA001546194662683346921846EB65
:100A08000303281846EB0101FFF772FC0C4DA5FB08
:100A180000325109642303FB1103DB003233A5FBC9
:100A280003235B095A0002F4F87202EB011203F087
:100A38000703216813448B60D0E700BF0010014012
:100A48001F85EB512DE9F84305460F461646994692
:100A5800DDF820802C68246837EA04030CBF0124E1
:100A68000024B4421FD1B8F1FF3FF3D0B8F1000F12
:100A780005D000F091FDA0EB09004045EAD92A68AD
:100A8800D36823F4D073D3602A68536923F0010331
:100A98005361202385F83D3085F83E30002385F8E2
:100AA8003C30032000E00020BDE8F88358B310B5BF
:100AB800044690F83D300BB3242384F83D30226877
:100AC800D36823F40053D3602046FFF72DFF226834
:100AD800136923F4904313612268536923F02A03AE
:100AE80053612268D36843F40053D3600020206424
:100AF800202384F83D3084F83E3010BD80F83C3027
:100B0800FFF786FED8E7012070472DE9F04182B053
:100B18001E4690F83D30DBB2202B54D104460D46DA
:100B28009046002953D0002A53D090F83C30012B2E
:100B380051D0012380F83C3000230364212380F83E
:100B48003D3000F029FD0746A4F82480A4F826804B
:100B5800A368B3F5805F05D04FF00008002384F840
:100B68003C3012E0236913B14FF00008F6E7A846BD
:100B78000025F3E738F8023B2268C3F30803536003
:100B8800E28C92B2013A92B2E284E38C9BB273B1E6
:100B980000963B46002280212046FFF753FFE0B92C
:100BA800002DE7D015F8012B23685A60E8E7009676
:100BB8003B46002240212046FFF744FF78B9202316
:100BC80084F83D3000E0022002B0BDE8F081012049
:100BD800FAE70120F8E70220F6E70320F4E703200C
:100BE800F2E70000002800F0DF8170B582B004460B
:100BF800036813F0010F3BD0A64B9B6803F00C036E
:100C0800042B2CD0A34B9B6803F00C03082B21D09A
:100C18006368B3F5803F4FD0B3F5A02F52D09D4BFA
:100C28001A6822F480321A601A6822F480221A6044
:100C38006368002B50D000F0AFFC0546954B1B684D
:100C480013F4003F14D100F0A7FC401B6428F5D929
:100C58000320B0E18F4B5B6813F4800FD8D08D4B25
:100C68001B6813F4003F03D06368002B00F09E81DB
:100C7800236813F0020F54D0864B9B6813F00C0FB7
:100C88003ED0844B9B6803F00C03082B33D0E368F9
:100C9800002B67D0804B01221A6000F07DFC0546CE
:100CA8007C4B1B6813F0020F53D100F075FC401BFE
:100CB8000228F5D903207EE1764A136843F480338D
:100CC8001360B5E7734B1A6842F480221A601A68F9
:100CD80042F480321A60ABE700F05EFC05466D4BCB
:100CE8001B6813F4003FC3D000F056FC401B642877
:100CF800F5D903205FE1674B5B6813F4800FC6D119
:100D0800644B1B6813F0020F03D0E368012B40F01B
:100D18004F81604A136823F0F803216943EAC1034D
:100D28001360236813F0080F40D0636963B35B4B0B
:100D380001221A6000F030FC0546564B5B6F13F039
:100D4800020F33D100F028FC401B0228F5D90320FC
:100D580031E1504A136823F0F803216943EAC103DB
:100D68001360DEE74C4B00221A6000F015FC0546C4
:100D7800484B1B6813F0020FD3D000F00DFC401B4A
:100D88000228F5D9032016E1444B00221A6000F02E
:100D980003FC05463F4B5B6F13F0020F06D000F0D3
:100DA800FBFB401B0228F5D9032004E1236813F05C
:100DB800040F78D0374B1B6C13F0805F0DD10023E4
:100DC8000193344B1A6C42F080521A641B6C03F086
:100DD80080530193019B012500E00025304B1B68DF
:100DE80013F4807F21D0A368012B32D0052B36D095
:100DF800284B1A6F22F001021A671A6F22F00402B8
:100E08001A67A368002B34D000F0C6FB0646214BB6
:100E18001B6F13F0020F45D100F0BEFB801B41F29F
:100E280088339842F3D90320C5E01D4A136843F478
:100E38008073136000F0B0FB0646194B1B6813F46F
:100E4800807FD0D100F0A8FB801B0228F5D90320B1
:100E5800B1E0104A136F43F001031367D1E70D4B5C
:100E68001A6F42F004021A671A6F42F001021A67F9
:100E7800C7E700F091FB0646064B1B6F13F0020F05
:100E880010D000F089FB801B41F288339842F3D9D7
:100E9800032090E00038024000004742800E47429D
:100EA80000700040EDB9A369002B00F08380494A27
:100EB800926802F00C02082A51D0022B17D0464B38
:100EC80000221A6000F068FB0446424B1B6813F0CE
:100ED800007F42D000F060FB001B0228F5D90320F8
:100EE80069E03C4A136C23F080531364DBE73A4B08
:100EF80000221A6000F050FB0546364B1B6813F0C1
:100F0800007F06D000F048FB401B0228F5D90320DB
:100F180051E0E369226A1343626A43EA8213A26AD0
:100F28005208013A43EA0243E26A43EA0263294A61
:100F38005360294B01221A6000F02EFB0446254B12
:100F48001B6813F0007F06D100F026FB001B022867
:100F5800F5D903202FE000202DE000202BE0012B05
:100F68002BD01C4B5B6803F48001E269914226D1C7
:100F780003F03F02216A8A4223D1616A47F6C072B0
:100F88001A40B2EB811F1ED103F44031A26A520805
:100F9800013AB1EB024F18D103F07063E26AB3EB88
:100FA800026F14D1002006E001207047012002E002
:100FB800012000E0002002B070BD0120FBE7012005
:100FC800F9E70120F7E70120F5E70120F3E7012021
:100FD800F1E700BF0038024060004742F8B52F4BE8
:100FE8009B6803F00C03042B53D0082B53D12B4BD5
:100FF8005A6802F03F025B6813F4800F28D0274B31
:101008005B68C3F3881358010021C01A61F100011D
:101018008E0146EA906687013C1A66EB0105E900F5
:1010280041EA5471E000C01841F100014B0243EA63
:10103800D0534402204619460023FFF759F9174BAD
:101048005B68C3F3014301335B00B0FBF3F023E0BB
:10105800124B5B68C3F388135C010025E41A65F141
:101068000005AE0146EA9466A701381B66EB050148
:10107800CC0044EA5074C500E81844F100018B0222
:1010880043EA90538402204619460023FFF730F9BB
:10109800D5E7034800E00348F8BD00BF0038024028
:1010A80000127A000024F400002800F09B8070B53C
:1010B8000D4604464F4B1B6803F007038B4208D2CA
:1010C800CBB24C4A1370136803F007038B4240F00D
:1010D8008B80236813F0020F17D013F0040F04D08D
:1010E800454A936843F4E0539360236813F0080F6C
:1010F80004D0414A936843F4604393603E4A93683E
:1011080023F0F003A1680B439360236813F0010FE9
:1011180032D06368012B21D09A1E012A25D9364A7C
:10112800126812F0020F61D033498A6822F0030274
:1011380013438B6000F030FA06462F4B9B6803F090
:101148000C036268B3EB820F16D000F025FA801BFF
:1011580041F288339842F0D9032042E0264A1268C7
:1011680012F4003FE0D101203BE0234A126812F05C
:10117800007FD9D1012034E01E4B1B6803F0070320
:10118800AB4207D9EAB21B4B1A701B6803F007037E
:10119800AB422DD1236813F0040F06D0164A93688A
:1011A80023F4E053E1680B439360236813F0080FBE
:1011B80007D0114A936823F46043216943EAC103C5
:1011C8009360FFF70BFF0C4B9B68C3F303130B4AA9
:1011D800D35CD8400A4B18600A4B186800F090F9A5
:1011E800002070BD012070470120FAE70120F8E7D0
:1011F8000120F6E7003C0240003802407C16000857
:101208000800002004000020014B1868704700BF48
:101218000800002008B5FFF7F7FF044B9B68C3F3ED
:101228008223034AD35CD84008BD00BF003802407F
:101238008C16000808B5FFF7E7FF044B9B68C3F35B
:101248004233034AD35CD84008BD00BF003802408F
:101258008C16000800230F2B00F2DD80F0B482B05A
:101268005DE086685F000324BC4026EA0406CC687B
:10127800BC4034438460466826EA02064C68C4F3DE
:1012880000129A403243426057E0DC08083450F8B4
:10129800247003F0070296000F22B24027EA0207E3
:1012A8000A69B2403A4340F824205AE0072200E095
:1012B8000022B2403A430234574E46F82420574A97
:1012C8001468EA4324EA05064F6817F4803F01D002
:1012D80045EA0406514C2660646802EA04064F6831
:1012E80017F4003F01D045EA04064C4C6660A46838
:1012F80002EA04064F6817F4801F01D045EA040685
:10130800464CA660E46822404E6816F4001F01D0DF
:1013180045EA0402414CE26001330F2B78D80122E0
:101328009A400C6804EA020532EA0404F4D14C68D5
:1013380004F00304013C012C93D94A6802F003022B
:10134800032A09D0C4685E000322B24024EA0204DA
:101358008A68B2402243C2604A6802F00302022A45
:1013680093D004685E000322B24024EA02044A686B
:1013780002F00302B240224302604A6812F0805F22
:10138800CAD000220192264A546C44F48044546422
:10139800526C02F480420192019A9C08A61C1E4AD3
:1013A80052F8267003F0030296000F22B24027EA93
:1013B80002071C4A90423FF47BAF02F580629042DC
:1013C8001AD002F58062904218D002F580629042ED
:1013D80016D002F58062904214D002F580629042E5
:1013E80012D002F58062904210D002F580629042DD
:1013F8003FF45CAF08225CE701225AE7022258E773
:10140800032256E7042254E7052252E7062250E752
:1014180002B0F0BC7047704700380140003C014002
:1014280000380240000002400AB181617047090497
:1014380081617047436901EA030221EA030141EA35
:101448000241816170470000074AD36823F4E063D2
:101458001B041B0C000200F4E060034343F0BF636D
:1014680043F40033D360704700ED00E030B4174B0D
:10147800DB68C3F30223C3F10704042C28BF042448
:101488001D1D062D18D9033B4FF0FF3505FA04F44E
:1014980021EA0401994005FA03F322EA03031943F8
:1014A80000280BDB0901C9B200F1604000F561407A
:1014B80080F8001330BC70470023E5E700F00F0008
:1014C8000901C9B2024B1954F4E700BF00ED00E06E
:1014D80014ED00E00138B0F1807F0AD2064B586065
:1014E800064AF02182F823100020986007221A602B
:1014F80070470120704700BF10E000E000ED00E0F9
:1015080010B504460E4B18784FF47A73B3FBF0F31A
:101518000C4A1068B0FBF3F0FFF7DCFF68B90F2C3A
:1015280001D901200AE0002221464FF0FF30FFF7E1
:101538009DFF054B1C60002000E0012010BD00BF8E
:1015480000000020080000200400002008B50B4B14
:101558001A6842F400721A601A6842F480621A60CB
:101568001A6842F480721A600320FFF76DFF0020AA
:10157800FFF7C6FFFFF7BCF9002008BD003C02409A
:10158800034A1168034B1B780B441360704700BF74
:10159800B000002000000020014B1868704700BF11
:1015A800B000002038B50446FFF7F6FF0546B4F151
:1015B800FF3F02D0044B1B781C44FFF7EDFF401B94
:1015C800A042FAD338BD00BF00000020034AD2F879
:1015D800883043F47003C2F88830704700ED00E0AB
:1015E800DFF834D00D480E490E4A002302E0D458E3
:1015F800C4500433C4188C42F9D30B4A0B4C002353
:1016080001E013600432A242FBD3FFF7DFFFFEF7CD
:10161800FBFDFFF73FF870470000022000000020A4
:101628000C000020A41600080C000020B4000020C4
:10163800FEE70000F8B500BFF8BC08BC9E4670473E
:0C164800F8B500BFF8BC08BC9E46704717
:1016540068656C6C6F206772656D737921210D0A62
:101664000000000000000000000000000000000076
:101674000000000000000000000000000000000066
:101684000102030406070809000000000102030424
:0816940094ECFF7F010000004F
:04169C00F101000850
:0416A000C901000874
:0C16A40001000000100000000024F40011
:04000005080015E9F1
:00000001FF
