:020000040800F2
:1000000028040020A1010008BF020008BB0200086C
:10001000BD020008E9010008A30600080000000076
:10002000000000000000000000000000E9030008DC
:10003000EB0100080000000025030008A1040008EF
:10004000BB010008BB010008BB010008BB010008A0
:10005000BB010008BB010008BB010008BB01000890
:10006000BB010008BB010008BB010008BB01000880
:10007000BB010008BB010008BB010008BB01000870
:10008000BB010008BB010008BB010008BB01000860
:10009000BB010008BB010008BB010008BB01000850
:1000A000BB010008BB010008BB010008BB01000840
:1000B000BB010008BB010008BB010008BB01000830
:1000C000BB010008BB010008BB010008BB01000820
:1000D000BB010008F5040008BB010008BB010008D3
:1000E000BB010008BB010008BB010008BB01000800
:1000F000BB010008BB010008BB010008BB010008F0
:10010000BB010008BB010008BB010008BB010008DF
:10011000BB010008BB010008BB010008BB010008CF
:10012000BB010008BB010008BB010008BB010008BF
:10013000BB010008BB010008BB010008BB010008AF
:10014000BB010008BB010008BB010008BB0100089F
:10015000BB010008BB010008BB010008BB0100088F
:10016000BB010008BB010008BB010008BB0100087F
:10017000BB010008BB010008BB010008BB0100086F
:10018000BB010008BB010008DFF810D000F01AF82E
:1001900000480047C5070008AFF30080280400208E
:1001A0000648804706480047FEE7FEE7FEE7FEE711
:1001B000FEE7FEE7FEE7FEE7FEE7FEE7A504000830
:1001C00089010008064C074D06E0E06840F0010395
:1001D00094E8070098471034AC42F6D3FFF7D8FFF5
:1001E0003008000850080008FEE7704701B5009885
:1001F000411E0091FBD208BDF0B500230124032766
:100200000D6804FA03F21540954242D1D0F800C0BF
:100210005E0007FA06F52CEA050CC0F800C091F85C
:1002200004C0D0F800E00CFA06FC4CEA0E0CC0F852
:1002300000C091F804C0BCF1010F02D0BCF1020F64
:100240001FD1D0F808C02CEA050CC0F808C091F8FE
:1002500005C0D0F808E00CFA06FC4CEA0E0CC0F819
:1002600008C0D0F804C02CEA020CC0F804C04268F0
:1002700091F806C00CFA03FC1FFA8CFC42EA0C024F
:100280004260C268AA43C260CA79C568B2402A43C4
:10029000C2605B1C102BB3D3F0BD4B07DB0E9A4042
:1002A000C90810B500EB8100016A0F249C40A143EE
:1002B0000162016A1143016210BDFEE7FEE770476B
:1002C00030B50F22C47801780123FCB1144C2468A6
:1002D00001F1E02104F4E064C4F5E064C4F3072410
:1002E000C4F10405E2404478AC40857815402543CC
:1002F0002A0181F80024007800F01F018B4040099A
:10030000800000F1E020C0F8003130BD01F01F0096
:1003100083404809800000F1E020C0F8803130BD02
:100320000CED00E070470000044A0029116801D07C
:10033000014300E081431160704700003038024003
:10034000044A0029116801D0014300E08143116093
:10035000704700004438024070B5204A1168204CB4
:1003600011F00C0104D06610042903D0082903D031
:1003700004601BE0066019E01849091F0B68C3F30D
:1003800080550B6803F03F0315B1B6FBF3F301E0B2
:10039000B4FBF3F30C680968C4F388146343C1F336
:1003A0000141491C4900B3FBF1F1016011680F23C1
:1003B00003EA11110B4B5C5C0168E1404160146879
:1003C000072505EA94241C5D21FA04F48460126870
:1003D00005EA52329A5CD140C16070BD08380240D3
:1003E0000024F40001000020704700000CB500203C
:1003F0002749019000900A6842F480320A604FF465
:10040000A0630A6802F400320092019A521C019221
:10041000009A12B9019A9A42F3D10A68920334D52C
:10042000012000901A484030026842F08052026079
:100430001848026842F48042026015480830026899
:100440000260026842F400420260026842F4A05274
:100450000260031F104A1A600A6842F080720A6044
:100460000A689201FCD50D4A40F2056111600168ED
:1004700021F003010160016841F00201016001689F
:10048000C1F381010229FAD10CBD00900CBD00001E
:10049000003802400070004008544007003C024011
:1004A000704700000F4810B5016841F0010101607C
:1004B0000C4A00210832116002680B4B1A4002609E
:1004C000031D0A4A1A60026822F48022026005486D
:1004D0000C300160FFF78AFF05494FF000600860AB
:1004E00010BD000000380240FFFFF6FE103000246F
:1004F00008ED00E010B50E4C40F22551204600F00A
:100500002EF800280CD0A1882046CBB2094A0A2B2D
:1005100007D011780C2904D807484354491C11709E
:1005200010BD00211170BDE81040034900F0A8B8CB
:1005300000100140000000201800002000298189DF
:1005400002D041F4005101E021F400518181704753
:100550000246002012880A4200D00120704730B5C0
:1005600001F01F0201240025C1F3421304FA02F234
:10057000012B0FD0022B0FD0838A4FEA1121008864
:10058000134204FA01F400EA040001D000B101258D
:10059000284630BD8389F0E7038AEEE710B5C1F342
:1005A000421301F01F040121A140012B07D0022BAF
:1005B00007D01430002A026805D00A4304E00C304A
:1005C000F8E71030F6E78A43026010BD7FB50446B5
:1005D000008A0D4620F44051E88808432082A08913
:1005E00041F20C618843A9882A8911436A89024330
:1005F0001143A181A08A20F44071A8890843A082F8
:100600006846FFF7A9FE1A48844202D0194884427E
:1006100001D1039800E00298A189090400EBC00110
:1006200001EB0010296801D5490000E08900B0FB0A
:10063000F1F26420B2FBF0F109010B096FF018052B
:100640006B4302EB8302A3891D044FF0320306D5EE
:1006500003EBC202B2FBF0F000F0070005E003EB91
:100660000212B2FBF0F000F00F00084320817FBDC2
:100670000010014000140140C1F30801818070475F
:1006800070B50C46054608E028884006FCD5217860
:100690002846FFF7F1FF14F8010B20780028F3D16A
:1006A00070BDFEE7014A024900F013B8F5060008E4
:1006B0001400002002E008C8121F08C1002AFAD165
:1006C00070477047002001E001C1121F002AFBD1D2
:1006D00070472DE9F04116460F460446002503E019
:1006E0003946B047641C6D1C20780028F8D1284694
:1006F000BDE8F08170B5074D0446C1B22846FFF74A
:10070000BBFF40212846FFF723FF0028F9D02046F1
:1007100070BD000000100140F0B5054687B0012112
:100720001020FFF70DFE01210846FFF7FDFD4FF4F5
:10073000C060049002208DF814008DF8150000248C
:100740001E4F8DF8164001268DF8176004A9384613
:10075000FFF752FD072209213846FFF79EFD0722C9
:100760000A213846FFF799FD0095ADF808400C20A6
:10077000134DADF80440ADF80A00ADF80640ADF8F1
:100780000C4069462846FFF721FF012240F225511F
:100790002846FFF703FF25208DF818008DF8194033
:1007A0008DF81A408DF81B6006A8FFF789FD01211E
:1007B0002846FFF7C3FE07B0F0BD0000000002406E
:1007C000001001401FB56846FFF7C6FD4FF4E13049
:1007D000FFF7A2FF05A10D48FFF752FF0C4C204682
:1007E000FFF704FD0BA0FFF75DFFF8E7496E6974A2
:1007F00020636F6D706C657465212048656C6C6F4B
:1008000020576F726C64210D0A0000000010014037
:100810008096980068656C6C6F20776F726C6420AE
:100820006B686F61206E677579656E200D0A000038
:10083000500800080000002018000000B40600085E
:10084000680800081800002010040000C406000812
:10085000000000000001020304010203040607086F
:08086000090000000000000087
:040000050800018965
:00000001FF
